:100000000C946A000C9492000C9492000C94920050
:100010000C9492000C9492000C9492000C94920018
:100020000C9492000C9492000C9492000C94920008
:100030000C9492000C940F020C9492000C94920079
:100040000C940C030C9492000C9416060C94480625
:100050000C9492000C9492000C9492000C949200D8
:100060000C9492000C9492009301BA01BD01C0015E
:10007000C301C601C901CC01000000080002010053
:100080000003040700000000000000000102040853
:1000900010204080010204081020010204081020F2
:1000A000040404040404040402020202020203031E
:1000B00003030303000000002300260029000000C2
:1000C0000000250028002B0000000000240027006D
:1000D0002A00780611241FBECFEFD8E0DEBFCDBFC7
:1000E00011E0A0E0B1E0E4E4F1E102C005900D927E
:1000F000A43EB107D9F722E0A4EEB1E001C01D9201
:10010000A73CB207E1F710E0C4EDD0E004C02297AD
:10011000FE010E948208C23DD107C9F70E94BC06B9
:100120000C94A0080C94000040ED57E060E070E0F3
:100130008AEE91E00E94730220E835E240E050E050
:100140006AE272E08AEE91E00E9486028AEE91E015
:100150000E94700266E171E080911B0290911C0286
:100160000E9409076AE070E080E090E00E94850349
:1001700041E060E08AEE91E00E94F10226E040E872
:1001800055E260E070E08AE292E00E94B40568E225
:1001900071E08AE292E00E94160761E0809113010B
:1001A0000E94390461E080910F010E94390460E0EF
:1001B000809111010E943904529A539A549A559A87
:1001C000569A579A209A219A5A9A84EF91E00E945F
:1001D0003E025A985B9A84EF91E00E943E025B983F
:1001E0005C9A84EF91E00E943E025C985D9A84EFF5
:1001F00091E00E943E025D985E9A84EF91E00E9439
:100200003E025E985F9A84EF91E00E943E025F9802
:10021000289A84EF91E00E943E022898299A84EF60
:1002200091E00E943E0229980895DF92EF92FF929A
:100230000F931F93CF93DF93D82EF62E61E08F2D6F
:100240000E94390460E08D2D0E943904E12CC7E042
:10025000D0E001E010E060E08F2D0E94720480E0A9
:1002600090E00E94AD038D2D0E94A804892B39F0E7
:1002700098010C2E01C0220F0A94EAF7E22A61E0ED
:100280008F2D0E947204219730F78E2DDF91CF9130
:100290001F910F91FF90EF90DF900895AF92BF9262
:1002A000CF92DF92EF92FF920F931F93CF93DF9342
:1002B00061E0809113010E94720484E190E00E9449
:1002C000AD0360E0809113010E94720460910F0100
:1002D0007091100180911101909112010E941501FD
:1002E00080930E01C0E0D0E080910E0190E00C2ED2
:1002F00002C0959587950A94E2F780FF53C0FE01EE
:10030000EA5FFE4F8081992787FD9095A92FB92F2D
:10031000FC01E154F109E830F10508F043C0EC5C60
:10032000FF4F0C94800864E471E08AE292E00E943E
:1003300016076AE28AE292E00E940B074AE050E068
:100340006AE070E08AE292E00E94CB076CE78AE202
:1003500092E00E940B074AE050E061E070E08AE220
:1003600092E00E94CB0769E471E08AE292E00E9489
:10037000090718C06BE471E011C060E571E00EC0C0
:1003800065E571E00BC06AE571E008C06FE571E0FA
:1003900005C064E671E002C069E671E08AE292E0BD
:1003A0000E9416072196C830D10509F09DCF809193
:1003B00004010E94F3039093E5018093E401BC01E2
:1003C000882777FD8095982F1F921F921F9223EB0D
:1003D0002F93A12CB12C6501EE24EA9413E0F12EA9
:1003E00000E010E020E030E0A9010E94E7077093F0
:1003F000E5016093E4010F900F900F900F906CE275
:1004000071E080E090E0DF91CF911F910F91FF901C
:10041000EF90DF90CF90BF90AF900C9485031F9228
:100420000F920FB60F9211242F933F934F935F9328
:100430006F937F938F939F93AF93BF93EF93FF93AC
:100440008091E6019091E70190938500809384006C
:10045000E091E801F091E9010995FF91EF91BF91D9
:10046000AF919F918F917F916F915F914F913F914C
:100470002F910F900FBE0F901F9018952CE93FE021
:10048000009729F0F9013197F1F70197F9CF089515
:100490000F931F93CF93DF93EC01662359F00E94D3
:1004A000560369837A838B839C83DF91CF911F915D
:1004B0000F9108950E94560309811A812B813C8176
:1004C000601B710B820B930B6233710581059105E3
:1004D00030F763E070E080E090E00E948503EACFAF
:1004E00060E00C944802FC0113AA14AA15AA16AAEB
:1004F0001182128213821482411551056105710522
:1005000021F0CB01BA010C9485030895FB01BA01D7
:10051000A901DC01D296FC93EE93D19726E0CF019E
:100520000C94B4051F93CF93DF93EC01162F6EE666
:1005300071E089A99AA90E9409074AE050E0612F59
:1005400089A99AA90E94E00765E771E089A99AA99B
:100550000E94090762E370E080E090E0DF91CF91B4
:100560001F910C9485031F93CF93DF93EC01162FFB
:100570008D81882389F189A99AA9DC01ED91FC91EB
:100580000480F581E02D0995892BA9F307C0263752
:10059000310519F12835310509F41D8289A99AA977
:1005A000DC01ED91FC910480F581E02D0995181690
:1005B000190694F489A99AA9DC01ED91FC910680B1
:1005C000F781E02D09959C01332723363105F9F693
:1005D000612FCE010E94920283E6DF91CF911F919D
:1005E00008950F931F93CF93DF931F92CDB7DEB77C
:1005F0008C01662349F081E0F801858360E0C80141
:1006000049830E94B3024981F80145830F90DF912D
:10061000CF911F910F9108951F920F920FB60F92D5
:1006200011242F933F938F939F93AF93BF93809108
:10063000220290912302A0912402B09125023091D0
:10064000210223E0230F2D3720F40196A11DB11DB7
:1006500005C026E8230F0296A11DB11D209321029B
:100660008093220290932302A0932402B093250248
:100670008091260290912702A0912802B091290230
:100680000196A11DB11D8093260290932702A0938D
:100690002802B0932902BF91AF919F918F913F9112
:1006A0002F910F900FBE0F901F9018952FB7F894B1
:1006B0006091220270912302809124029091250280
:1006C0002FBF08953FB7F89480912602909127029A
:1006D000A0912802B091290226B5A89B05C02F3F02
:1006E00019F00196A11DB11D3FBF6627782F892FF4
:1006F0009A2F620F711D811D911D42E0660F771FB9
:10070000881F991F4A95D1F70895CF92DF92EF92F3
:10071000FF92CF93DF936B017C010E946203EB0198
:10072000C114D104E104F10489F00E942E080E9452
:1007300062036C1B7D0B683E734090F381E0C81A26
:10074000D108E108F108C851DC4FEACFDF91CF9121
:10075000FF90EF90DF90CF9008958230910538F0B0
:10076000880F991F880F991F05970197F1F7089532
:10077000789484B5826084BD84B5816084BD85B57C
:10078000826085BD85B5816085BDEEE6F0E0808143
:1007900081608083E1E8F0E0108280818260808364
:1007A000808181608083E0E8F0E0808181608083E7
:1007B000E1EBF0E0808184608083E0EBF0E0808119
:1007C00081608083EAE7F0E08081846080838081BB
:1007D0008260808380818160808380818068808363
:1007E0001092C10008958E3008F08E5087702091CD
:1007F000150190E4299F90011124822B80937C00A5
:1008000080917A00806480937A0080917A0086FDDE
:10081000FCCF809178002091790090E0922B089590
:10082000833081F028F4813099F08230A1F008956E
:100830008730A9F08830B9F08430D1F480918000FD
:100840008F7D03C0809180008F7780938000089512
:1008500084B58F7702C084B58F7D84BD0895809163
:10086000B0008F7703C08091B0008F7D8093B0007F
:100870000895CF93DF9390E0FC01E457FF4F24915C
:10088000FC01E056FF4F8491882349F190E0880FE6
:10089000991FFC01E853FF4FA591B49182549F4FDB
:1008A000FC01C591D4919FB7611108C0F8948C9157
:1008B000209582238C93888182230AC0623051F470
:1008C000F8948C91322F309583238C938881822BDE
:1008D000888304C0F8948C91822B8C939FBFDF9106
:1008E000CF9108950F931F93CF93DF931F92CDB7AE
:1008F000DEB7282F30E0F901E858FF4F8491F90165
:10090000E457FF4F1491F901E056FF4F0491002383
:10091000C9F0882321F069830E9410046981E02FC7
:10092000F0E0EE0FFF1FE254FF4FA591B4919FB787
:10093000F8948C91611103C01095812301C0812B23
:100940008C939FBF0F90DF91CF911F910F910895CE
:10095000CF93DF93282F30E0F901E858FF4F8491BF
:10096000F901E457FF4FD491F901E056FF4FC491CC
:10097000CC2391F081110E941004EC2FF0E0EE0FD7
:10098000FF1FEC54FF4FA591B4912C912D2381E0D2
:1009900090E021F480E002C080E090E0DF91CF9110
:1009A0000895FC01818D228D90E0805C9F4F821B19
:1009B00091098F7399270895FC01918D828D981765
:1009C00031F0828DE80FF11D858D90E008958FEF55
:1009D0009FEF0895FC01918D828D981761F0828DB3
:1009E000DF01A80FB11D5D968C91928D9F5F9F7363
:1009F000928F90E008958FEF9FEF08958EE696E036
:100A0000892B49F080E090E0892B29F00E946E0646
:100A100081110C9400000895FC01848DDF01A80F62
:100A2000B11DA35ABF4F2C91848D90E001968F7316
:100A30009927848FA689B7892C93A089B1898C9135
:100A400080648C93938D848D981306C00288F389FB
:100A5000E02D80818F7D80830895CF93DF93EC011B
:100A6000888D8823C9F0EA89FB89808185FD05C0CE
:100A7000A889B9898C9186FD0FC00FB607FCF5CF08
:100A8000808185FFF2CFA889B9898C9185FFEDCF50
:100A9000CE010E940C05E7CFDF91CF910895CF9250
:100AA000DF92FF920F931F93CF93DF931F92CDB7E7
:100AB000DEB76C0181E0D60158968C9358975B960F
:100AC0009C915B975C968C915C97981307C05096AD
:100AD000ED91FC915197808185FD2EC0F601038D2B
:100AE00010E00F5F1F4F0F731127F02EF601848D5A
:100AF000F81211C00FB607FCF9CFD6015096ED9150
:100B0000FC915197808185FFF1CFC60169830E94D6
:100B10000C056981EBCF838DE80FF11DE35AFF4F80
:100B20006083D6015B960C935B975296ED91FC9196
:100B30005397808180620CC0D6015696ED91FC914E
:100B4000579760835096ED91FC9151978081806416
:100B5000808381E090E00F90DF91CF911F910F9102
:100B6000FF90DF90CF900895BF92CF92DF92EF92E7
:100B7000FF92CF93DF93EC016A017B01B22EE889EB
:100B8000F98982E08083411581EE5807610571057E
:100B9000A1F060E079E08DE390E0A70196010E946A
:100BA0003F0821503109410951095695479537951C
:100BB0002795211580E1380798F0E889F989108296
:100BC00060E874E88EE190E0A70196010E943F087A
:100BD0002150310941095109569547953795279577
:100BE000EC85FD853083EE85FF852083188EEC89AA
:100BF000FD89B082EA89FB89808180618083EA89EE
:100C0000FB89808188608083EA89FB898081806894
:100C10008083EA89FB8980818F7D8083DF91CF91FA
:100C2000FF90EF90DF90CF90BF9008951F920F92AA
:100C30000FB60F9211242F938F939F93EF93FF93EF
:100C4000E0913A02F0913B028081E0914002F09104
:100C5000410282FD12C09081809143028F5F8F73A9
:100C600020914402821751F0E0914302F0E0E65DEA
:100C7000FD4F958F8093430201C08081FF91EF91DA
:100C80009F918F912F910F900FBE0F901F901895ED
:100C90001F920F920FB60F9211242F933F934F93F1
:100CA0005F936F937F938F939F93AF93BF93EF93D4
:100CB000FF938AE292E00E940C05FF91EF91BF91B1
:100CC000AF919F918F917F916F915F914F913F91E4
:100CD0002F910F900FBE0F901F9018958AE292E00F
:100CE0000E94D10421E0892B09F420E0822F08958D
:100CF00010922D0210922C0288EE93E0A0E0B0E05A
:100D000080932E0290932F02A0933002B093310271
:100D10008AEC91E090932B0280932A0285EC90E07C
:100D2000909337028093360284EC90E090933902DE
:100D30008093380280EC90E090933B0280933A02DB
:100D400081EC90E090933D0280933C0282EC90E035
:100D500090933F0280933E0286EC90E09093410294
:100D60008093400210924302109244021092450276
:100D700010924602089508950E94B8030E94BB068F
:100D80000E949400CEEFD4E00E944E012097E1F340
:100D90000E94FE04F9CFCF92DF92EF92FF920F9361
:100DA0001F93CF93DF937C016A01EB0100E010E019
:100DB0000C151D0571F06991D701ED91FC91019021
:100DC000F081E02DC7010995892B19F00F5F1F4FA6
:100DD000EFCFC801DF91CF911F910F91FF90EF905E
:100DE000DF90CF9008956115710581F0DB010D90C2
:100DF0000020E9F7AD0141505109461B570BDC01BA
:100E0000ED91FC910280F381E02D099480E090E067
:100E100008950C94F306DC01ED91FC910190F081B2
:100E2000E02D09946BE771E00C94F3060F931F9388
:100E3000CF93DF93EC010E94F3068C01CE010E9458
:100E40001207800F911FDF91CF911F910F9108958D
:100E50008F929F92AF92BF92CF92DF92EF92FF92CA
:100E60000F931F93CF93DF93CDB7DEB7A1970FB644
:100E7000F894DEBF0FBECDBF7C01C42EE52FCB01A1
:100E8000D22E19A221E02D1510F02AE0D22E8E01CB
:100E90000F5D1F4F8D2C912CA12CB12C6C2D7E2F12
:100EA000A50194010E943F088C2DD29E8019112427
:100EB000015011098A3014F4805D01C0895CF80189
:100EC0008083211531054105510521F0C22EE32F04
:100ED000CA01E4CFB801C7010E94F306A1960FB67C
:100EE000F894DEBF0FBECDBFDF91CF911F910F9160
:100EF000FF90EF90DF90CF90BF90AF909F908F903A
:100F00000895CF92DF92EF92FF920F931F93CF93AA
:100F1000DF93EC016A017B012115310579F4E88149
:100F2000F9810190F081E02D642FDF91CF911F9125
:100F30000F91FF90EF90DF90CF9009942A30310508
:100F4000E9F477FF1AC06DE20E940B078C01442779
:100F50005527BA014C195D096E097F092AE0CE01B7
:100F60000E942807800F911FDF91CF911F910F9151
:100F7000FF90EF90DF90CF9008952AE0B701A6018F
:100F8000CE01DF91CF911F910F91FF90EF90DF90F5
:100F9000CF900C9428079A01AB01662757FD609506
:100FA000762F0C9481072115310541F4DC01ED9178
:100FB000FC910190F081E02D642F09940C94280796
:100FC0009A01462F50E060E070E00C94D3074F92F6
:100FD0005F926F927F92AF92BF92CF92DF92EF9229
:100FE000FF920F931F93CF93DF93CDB7DEB7290105
:100FF0003A01621B730B840B950B29893A894B8943
:101000005C892A193B094C095D09298B3A8B4B8B6A
:101010005C8B9B01AC0169897A898B899C890E94D0
:101020002F08E418F50806091709A80197010E947E
:1010300061082A0D3B1D4C1D5D1DCA01B901DF91E0
:10104000CF911F910F91FF90EF90DF90CF90BF90C5
:10105000AF907F906F905F904F9008950895DB015F
:101060008F939F930E948608BF91AF91A29F800D9E
:10107000911DA39F900DB29F900D11240895A1E2A0
:101080001A2EAA1BBB1BFD010DC0AA1FBB1FEE1F02
:10109000FF1FA217B307E407F50720F0A21BB30B4D
:1010A000E40BF50B661F771F881F991F1A9469F7C9
:1010B00060957095809590959B01AC01BD01CF0125
:1010C0000895052E97FB1EF400940E94780857FDA2
:1010D00007D00E943F0807FC03D04EF40C94780818
:1010E00050954095309521953F4F4F4F5F4F089554
:1010F00090958095709561957F4F8F4F9F4F089584
:10110000EE0FFF1F0590F491E02D09940E949108C5
:10111000A59F900DB49F900DA49F800D911D11244B
:101120000895A29FB001B39FC001A39F700D811DC0
:101130001124911DB29F700D811D1124911D0895E0
:04114000F894FFCF51
:10114400010000000F004142434445464748480718
:10115400000900080001564D4450565F317C315F50
:10116400564D4450560D0A0041726475696E6F20E5
:101174005472616E736D6974746572205665722E53
:10118400302E31004B6579310009004B657932000E
:101194004B657933004B657934004B657935004BE9
:1011A400657936004B657937004B65793800564DC3
:1011B4004450435F005F564D4450430D0A0045724E
:1011C400726F723A20417474656D707420746F206C
:1011D400736574206120726561642D6F6E6C792073
:1011E4007661726961626C65206F722064617461FA
:1011F4002074797065206E6F7420737570706F72CF
:101204007465640D0A00000000004F05CB06D1048C
:10121400EA04DC042D056E616E00696E66006F766B
:0412240066002E0032
:00000001FF
