:100000000C946C000C9494000C9494000C94AF0726
:100010000C94AF070C94AF070C9494000C949400CC
:100020000C9494000C9494000C9494000C94940000
:100030000C9494000C9483060C9494000C949400FB
:100040000C94040A0C9494000C946D0D0C949F0D68
:100050000C9494000C9494000C9494000C949400D0
:100060000C9494000C949400BC013002A402180378
:100070008C0300047404E80400000008000201007E
:100080000003040700000000000000000102040853
:1000900010204080010204081020010204081020F2
:1000A000040404040404040402020202020203031E
:1000B00003030303000000002300260029000000C2
:1000C0000000250028002B0000000000240027006D
:1000D0002A00CF00CF0DDC0011241FBECFEFD8E0E7
:1000E000DEBFCDBF12E0A0E0B1E0EAE4F8E202C07A
:1000F00005900D92AE34B107D9F723E0AEE4B2E03B
:1001000001C01D92A23DB207E1F710E0C6EDD0E0BC
:1001100004C02297FE010E94C211C23DD107C9F757
:100120000E94130E0C9418140C940000DF92EF92AE
:10013000FF920F931F93CF93DF93D82EF62E61E09B
:100140008F2D0E94900B60E08D2D0E94900BE12C72
:10015000C7E0D0E001E010E060E08F2D0E94C90B05
:1001600080E090E00E94A50A8D2D0E94FF0B892B54
:1001700039F098010C2E01C0220F0A94EAF7E22A06
:1001800061E08F2D0E94C90B219730F78E2DDF91F2
:10019000CF911F910F91FF90EF90DF90089520E095
:1001A00043E062E08AE892E00E9482086AE671E039
:1001B0008EE492E00C94D9108EE492E00E946B10D1
:1001C0008AE892E00C94290840ED57E060E070E086
:1001D00081EF92E00E946B0920E835E240E050E0B8
:1001E00061E373E081EF92E00E947E0981EF92E08B
:1001F0000E94680964E271E08091220390912303D8
:100200000E94600E6AE070E080E090E00E947D0A4B
:1002100041E060E081EF92E00E94E90940E855E2A8
:1002200060E070E08AE892E00E94B20826E040E8D0
:1002300055E260E070E081E393E00E940B0D66E31D
:1002400071E081E393E00E946D0E62E571E08AE85F
:1002500092E00E946D0E8AE892E00E94610761E0E0
:1002600080911D010E94900B61E0809119010E9414
:10027000900B60E080911B010E94900B529A539A60
:10028000549A559A569A579A209A219A5A9A84EFD4
:1002900091E00E94B2065A985B9A84EF91E00E9426
:1002A000B2065B985C9A84EF91E00E94B2065C987B
:1002B0005D9A84EF91E00E94B2065D985E9A84EFA9
:1002C00091E00E94B2065E985F9A84EF91E00E94EE
:1002D000B2065F98289A84EF91E00E94B2062898AF
:1002E000299A84EF91E00E94B20629980895AF926E
:1002F000BF92CF92DF92EF92FF920F931F93CF9313
:10030000DF9361E080911D010E94C90B84E190E0C0
:100310000E94A50A60E080911D010E94C90B6091B6
:10032000190170911A0180911B0190911C010E948A
:10033000960080931801C0E0D0E08091180190E011
:100340000C2E02C0959587950A94E2F780FFB7C3FB
:10035000FE01E05FFE4F8081992787FD9095A92FD0
:10036000B92FFC01E154F109E830F10508F0A7C309
:10037000EC5CFF4F0C94C0110E944E0AC0908602A4
:10038000D0908702E0908802F09089026C197D0974
:100390008E099F09C0901F01D0902001E09021019B
:1003A000F0902201C616D706E806F90608F087C3C2
:1003B0006AE28AE892E00E947F0E4AE050E06AE03A
:1003C00070E08AE892E00E943C0F6CE78AE892E0D5
:1003D0000E947F0E4AE050E061E070E08AE892E01F
:1003E0000E94340F6CE78AE892E00E947F0E8091B1
:1003F0006802909169024AE050E003974CF463E090
:1004000070E08AE892E00E943C0F83E090E008C030
:1004100062E070E08AE892E00E943C0F82E090E0A7
:10042000909369028093680263E28AE892E00E94F6
:100430007F0E69E671E08AE892E00E946D0E0E94EC
:100440004E0A60938602709387028093880290938D
:1004500089028AE892E00E9461076BE671E02BC393
:100460000E944E0AC0908202D0908302E0908402E3
:10047000F09085026C197D098E099F09C0901F01BB
:10048000D0902001E0902101F0902201C616D706FD
:10049000E806F90608F013C36AE28AE892E00E94CF
:1004A0007F0E4AE050E06AE070E08AE892E00E9445
:1004B0003C0F6CE78AE892E00E947F0E4AE050E031
:1004C00062E070E08AE892E00E94340F6CE78AE80C
:1004D00092E00E947F0E80916602909167024AE04E
:1004E00050E003974CF463E070E08AE892E00E94E9
:1004F0003C0F83E090E008C062E070E08AE892E0A0
:100500000E943C0F82E090E0909367028093660225
:1005100063E28AE892E00E947F0E69E671E08AE871
:1005200092E00E946D0E0E944E0A609382027093C8
:10053000830280938402909385028AE892E00E946D
:10054000610760E771E0B7C20E944E0AC0907E0268
:10055000D0907F02E0908002F09081026C197D09BA
:100560008E099F09C0901F01D0902001E0902101C9
:10057000F0902201C616D706E806F90608F09FC2D9
:100580006AE28AE892E00E947F0E4AE050E06AE068
:1005900070E08AE892E00E943C0F6CE78AE892E003
:1005A0000E947F0E4AE050E063E070E08AE892E04B
:1005B0000E94340F6CE78AE892E00E947F0E8091DF
:1005C0006402909165024AE050E003974CF463E0C6
:1005D00070E08AE892E00E943C0F83E090E008C05F
:1005E00062E070E08AE892E00E943C0F82E090E0D6
:1005F000909365028093640263E28AE892E00E942D
:100600007F0E69E671E08AE892E00E946D0E0E941A
:100610004E0A60937E0270937F02809380029093D3
:1006200081028AE892E00E94610765E771E043C2B7
:100630000E944E0AC0907A02D0907B02E0907C0229
:10064000F0907D026C197D098E099F09C0901F01F1
:10065000D0902001E0902101F0902201C616D7062B
:10066000E806F90608F02BC26AE28AE892E00E94E6
:100670007F0E4AE050E06AE070E08AE892E00E9473
:100680003C0F6CE78AE892E00E947F0E4AE050E05F
:1006900064E070E08AE892E00E94340F6CE78AE838
:1006A00092E00E947F0E80916202909163024AE084
:1006B00050E003974CF463E070E08AE892E00E9417
:1006C0003C0F83E090E008C062E070E08AE892E0CE
:1006D0000E943C0F82E090E090936302809362025C
:1006E00063E28AE892E00E947F0E69E671E08AE8A0
:1006F00092E00E946D0E0E944E0A60937A027093FF
:100700007B0280937C0290937D028AE892E00E94B3
:1007100061076AE771E0CFC10E944E0AC09076027D
:10072000D0907702E0907802F09079026C197D0900
:100730008E099F09C0901F01D0902001E0902101F7
:10074000F0902201C616D706E806F90608F0B7C1F0
:100750006AE28AE892E00E947F0E4AE050E06AE096
:1007600070E08AE892E00E943C0F6CE78AE892E031
:100770000E947F0E4AE050E065E070E08AE892E077
:100780000E94340F6CE78AE892E00E947F0E80910D
:100790006002909161024AE050E003974CF463E0FC
:1007A00070E08AE892E00E943C0F83E090E008C08D
:1007B00062E070E08AE892E00E943C0F82E090E004
:1007C000909361028093600263E28AE892E00E9463
:1007D0007F0E69E671E08AE892E00E946D0E0E9449
:1007E0004E0A60937602709377028093780290931A
:1007F00079028AE892E00E9461076FE771E05BC1CD
:100800000E944E0AC0907202D0907302E09074026F
:10081000F09075026C197D098E099F09C0901F0127
:10082000D0902001E0902101F0902201C616D70659
:10083000E806F90608F043C16AE28AE892E00E94FD
:100840007F0E4AE050E06AE070E08AE892E00E94A1
:100850003C0F6CE78AE892E00E947F0E4AE050E08D
:1008600066E070E08AE892E00E94340F6CE78AE864
:1008700092E00E947F0E80915E0290915F024AE0BA
:1008800050E003974CF463E070E08AE892E00E9445
:100890003C0F83E090E008C062E070E08AE892E0FC
:1008A0000E943C0F82E090E090935F0280935E0292
:1008B00063E28AE892E00E947F0E69E671E08AE8CE
:1008C00092E00E946D0E0E944E0A60937202709335
:1008D000730280937402909375028AE892E00E94FA
:1008E000610764E871E0E7C00E944E0AC0906E02A2
:1008F000D0906F02E0907002F09071026C197D0947
:100900008E099F09C0901F01D0902001E090210125
:10091000F0902201C616D706E806F90608F0CFC007
:100920006AE28AE892E00E947F0E4AE050E06AE0C4
:1009300070E08AE892E00E943C0F6CE78AE892E05F
:100940000E947F0E4AE050E067E070E08AE892E0A3
:100950000E94340F6CE78AE892E00E947F0E80913B
:100960005C0290915D024AE050E003974CF463E032
:1009700070E08AE892E00E943C0F83E090E008C0BB
:1009800062E070E08AE892E00E943C0F82E090E032
:1009900090935D0280935C0263E28AE892E00E9499
:1009A0007F0E69E671E08AE892E00E946D0E0E9477
:1009B0004E0A60936E0270936F0280937002909360
:1009C00071028AE892E00E94610769E871E073C0F1
:1009D0000E944E0AC0906A02D0906B02E0906C02B6
:1009E000F0906D026C197D098E099F09C0901F015E
:1009F000D0902001E0902101F0902201C616D70688
:100A0000E806F90608F05BC06AE28AE892E00E9414
:100A10007F0E4AE050E06AE070E08AE892E00E94CF
:100A20003C0F6CE78AE892E00E947F0E4AE050E0BB
:100A300068E070E08AE892E00E94340F6CE78AE890
:100A400092E00E947F0E80915A0290915B024AE0F0
:100A500050E003974CF463E070E08AE892E00E9473
:100A60003C0F83E090E008C062E070E08AE892E02A
:100A70000E943C0F82E090E090935B0280935A02C8
:100A800063E28AE892E00E947F0E69E671E08AE8FC
:100A900092E00E946D0E0E944E0A60936A0270936B
:100AA0006B0280936C0290936D028AE892E00E9440
:100AB00061076EE871E081E393E00E946D0E21967C
:100AC000C830D10509F039CC80910E010E94EB0AA3
:100AD0009093590280935802BC01882777FD809536
:100AE000982F1F921F921F92C3EBCF93A12CB12C72
:100AF0006501EE24EA9413E0F12E00E010E020E01E
:100B000030E0A9010E9424107093590260935802AA
:100B100080910C010E94EB0A909357028093560239
:100B2000BC01882777FD8095982F1F921F921F92F6
:100B3000CF9320E030E0A9010E9424107093570267
:100B40006093560280910A010E94EB0A909355022D
:100B500080935402BC01882777FD8095982F1F92BF
:100B60001F921F92CF9320E030E0A9010E94241031
:100B7000709355026093540281E393E00E94280C25
:100B80002DB73EB7245F3F4F0FB6F8943EBF0FBE60
:100B90002DBF181619060CF0ABC081E393E00E943C
:100BA000410CC82F63E971E081E393E00E946D0E70
:100BB0006C2F81E393E00E947F0ECA3209F098C047
:100BC00081E393E00E9421106B017C01EB016EE94F
:100BD00071E081E393E00E946D0E4AE050E0B601BF
:100BE00081E393E00E943C0F81E393E00E94211097
:100BF000162F81E393E00E9421106B017C01CC3021
:100C0000D10549F56AE671E08EE492E00E94EF10AA
:100C100081E393E00E94280C892B09F459C081E3F9
:100C200093E00E94410CC82F65E070E080E090E006
:100C30000E947D0AC33209F44BC0CC3749F36C2FB4
:100C40008EE492E00E94331165E070E080E090E075
:100C50000E947D0ADDCFCA30D10571F46CEA71E0E3
:100C600081E393E00E946D0E4AE050E0B60181E31B
:100C700093E00E943C0F2CC0CB30D10569F4812F4A
:100C8000DF91CF911F910F91FF90EF90DF90CF9068
:100C9000BF90AF900C94080B2D97D1F46AEB71E0E4
:100CA00081E393E00E94600E8EE00E94EB0A4AE02E
:100CB00050E0BC0181E393E0DF91CF911F910F9150
:100CC000FF90EF90DF90CF90BF90AF900C943C0FCF
:100CD0006CE271E080E090E0DF91CF911F910F9185
:100CE000FF90EF90DF90CF90BF90AF900C947D0A73
:100CF000DF91CF911F910F91FF90EF90DF90CF90F8
:100D0000BF90AF9008951F920F920FB60F921124CB
:100D10002F933F934F935F936F937F938F939F9303
:100D2000AF93BF93EF93FF938091A9029091AA0292
:100D30009093850080938400E091AB02F091AC0227
:100D40000995FF91EF91BF91AF919F918F917F9105
:100D50006F915F914F913F912F910F900FBE0F9028
:100D60001F9018952CE93FE0009729F0F901319781
:100D7000F1F70197F9CF08952091EF023091F00239
:100D800028173907B9F49091AD028091AE029817F7
:100D900089F0E091AD02F0E0E155FD4F80812091B6
:100DA000AD0230E02F5F3F4F2F7333272093AD020A
:100DB00090E008958FEF9FEF08951F93CF93DF93F7
:100DC000DC015C968D919C915D97009749F481E0E0
:100DD00090E013969C938E93129780E090E03BC036
:100DE0005196ED91FC91529750962C915097322F3D
:100DF00030951FB75E964C915E9741FB772770F94F
:100E000041FD6095F8944081772311F0422B01C099
:100E100043234083EC012197F1F748E0508160FFC4
:100E200002C0522B01C053235083EC012197F1F7EC
:100E30006695415099F78081772311F0832301C093
:100E4000822B80831FBF5C968D919C915D9701974B
:100E5000F1F781E090E0DF91CF911F91089520910B
:100E6000EF023091F0022817390781F49091AD021A
:100E70008091AE02981751F0E091AD02F0E0E1559B
:100E8000FD4F8081992787FD909508958FEF9FEF03
:100E900008952091EF023091F0022817390771F47C
:100EA0008091AE022091AD0290E0805C9F4F821B4A
:100EB000910960E470E00E946B11089580E090E079
:100EC00008952091EF023091F0022817390739F484
:100ED0008FB7F8941092AE021092AD028FBF0895B2
:100EE000E091EF02F091F002E817F90769F4A389A5
:100EF000B4899C918589809589238C931092F00206
:100F00001092EF0281E0089580E00895CF93DF937F
:100F1000EC018A8D9B8D892BF1F08091EF029091ED
:100F2000F0028C179D07B9F0009711F00E9470072E
:100F30008E8D8E7F8E8F1092AE021092AD02D09366
:100F4000F002C093EF02EB89FC8980819D89892B97
:100F5000808381E001C080E0DF91CF9108951F92EE
:100F60000F920FB60F9211242F933F934F935F93DD
:100F70006F937F938F939F93AF93BF93EF93FF9361
:100F8000E091EF02F091F002309709F451C0868DA4
:100F9000A685B785958581FF04C08C91892329F4A6
:100FA00047C08C91892309F043C0A389B4899C91DF
:100FB0008589809589238C93868997890197F1F794
:100FC000208D318DA685B785758558E040E0C90133
:100FD0000197F1F7842F90E095958795482F6C91B4
:100FE000672309F04068515091F7868D81FD409547
:100FF0008091AE0290E001968F7399272091AD0207
:10100000281749F0A091AE02B0E0A155BD4F4C9316
:101010008093AE0203C0868D8160868F828D938D12
:101020000197F1F7A389B4898C919589892B8C93C9
:10103000FF91EF91BF91AF919F918F917F916F91B0
:101040005F914F913F912F910F900FBE0F901F9086
:1010500018952BEC31E0FC01318320830C94700750
:101060001F93CF93DF93EC01162F6E8D6695617001
:1010700081E06827812F0E94C90B61E0812F0E94C7
:10108000900B812F90E0FC01E457FF4FE491E88B37
:10109000FC01E056FF4FE491F0E0EE0FFF1FE25439
:1010A000FF4F859194919A8B898BDF91CF911F91FE
:1010B00008951F93CF93DF93EC01162F60E0812FEB
:1010C0000E94900B8E8D81FD04C061E0812F0E94F3
:1010D000C90B1C87812F90E0FC01E457FF4FE4917E
:1010E000ED87FC01E056FF4FE491F0E0EE0FFF1FAB
:1010F000EC54FF4F859194919F878E87DF91CF911C
:101100001F910895FF920F931F93CF93DF93EC01EC
:10111000F62E522F1B821A8208EE13E020E030E0F8
:101120000C831D832E833F838BEC91E0998388830E
:101130001F8A1E8A198E188E1B8E1A8E1D8E1C8E6B
:101140008E8D8E7F50FB81F98E8F642FCE010E9491
:1011500030086F2DCE01DF91CF911F910F91FF903D
:101160000C945908CF93DF93EC019A01AB011B8ECD
:101170001A8E198E188E1F8A1E8A60E079E08DE320
:1011800090E00E94A111C9012430310520F0B9017D
:101190006350710902C061E070E07D8F6C8FEC8557
:1011A000E63108F068C0B90176956795643171053C
:1011B00018F06351710902C061E070E07F8B6E8BA3
:1011C000069718F0C901059702C081E090E0998F59
:1011D000888FC901880F991F820F931F9695879555
:1011E000969587958D30910510F00C9702C081E09F
:1011F00090E09B8F8A8F20916800E83050F091E05A
:10120000EE3008F490E081E001C0880F9A95EAF78B
:1012100001C084E0822B809368002C85283038F050
:101220002E3040F0263148F48CE690E008C08DE680
:1012300090E005C08BE690E002C080E090E09C8BDF
:101240008B8B283030F481E001C0880F2A95EAF7B3
:101250000DC0822F90E02E3010F4089701C00E9739
:1012600091E001C0990F8A95EAF7892F8D8B8C8DBB
:101270009D8D0197F1F7CE01DF91CF910C948607F8
:101280000F931F93CF93DF93EC01662359F00E94D5
:101290004E0A69837A838B839C83DF91CF911F9160
:1012A0000F9108950E944E0A09811A812B813C8179
:1012B000601B710B820B930B6436710581059105E0
:1012C00030F763E070E080E090E00E947D0AEACFB2
:1012D00060E00C944009FC0113AA14AA15AA16AAEE
:1012E0001182128213821482411551056105710524
:1012F00021F0CB01BA010C947D0A0895FB01BA01DB
:10130000A901DC01D296FC93EE93D19726E0CF01A0
:101310000C940B0D1F93CF93DF93EC01162F67ED09
:1013200071E089A99AA90E94600E4AE050E0612FFD
:1013300089A99AA90E94610F6EED71E089A99AA905
:101340000E94600E62E370E080E090E0DF91CF9158
:101350001F910C947D0A1F93CF93DF93EC01162FFE
:101360008D81882389F189A99AA9DC01ED91FC91ED
:101370000480F581E02D0995892BA9F307C0263754
:10138000310519F12835310509F41D8289A99AA979
:10139000DC01ED91FC910480F581E02D0995181692
:1013A000190694F489A99AA9DC01ED91FC910680B3
:1013B000F781E02D09959C01332723363105F9F695
:1013C000612FCE010E948A0983E6DF91CF911F91A0
:1013D00008950F931F93CF93DF931F92CDB7DEB77E
:1013E0008C01662349F081E0F801858360E0C80143
:1013F00049830E94AB094981F80145830F90DF9131
:10140000CF911F910F9108951F920F920FB60F92D7
:1014100011242F933F938F939F93AF93BF9380910A
:10142000290390912A03A0912B03B0912C033091B2
:10143000280323E0230F2D3720F40196A11DB11DB1
:1014400005C026E8230F0296A11DB11D2093280395
:101450008093290390932A03A0932B03B0932C032A
:1014600080912D0390912E03A0912F03B091300312
:101470000196A11DB11D80932D0390932E03A0937F
:101480002F03B0933003BF91AF919F918F913F9104
:101490002F910F900FBE0F901F9018952FB7F894B3
:1014A0006091290370912A0380912B0390912C0362
:1014B0002FBF08953FB7F89480912D0390912E038C
:1014C000A0912F03B091300326B5A89B05C02F3FF4
:1014D00019F00196A11DB11D3FBF6627782F892FF6
:1014E0009A2F620F711D811D911D42E0660F771FBB
:1014F000881F991F4A95D1F70895CF92DF92EF92F6
:10150000FF92CF93DF936B017C010E945A0AEB019B
:10151000C114D104E104F10489F00E9446110E9433
:101520005A0A6C1B7D0B683E734090F381E0C81A29
:10153000D108E108F108C851DC4FEACFDF91CF9123
:10154000FF90EF90DF90CF9008958230910538F0B2
:10155000880F991F880F991F05970197F1F7089534
:10156000789484B5826084BD84B5816084BD85B57E
:10157000826085BD85B5816085BDEEE6F0E0808145
:1015800081608083E1E8F0E0108280818260808366
:10159000808181608083E0E8F0E0808181608083E9
:1015A000E1EBF0E0808184608083E0EBF0E080811B
:1015B00081608083EAE7F0E08081846080838081BD
:1015C0008260808380818160808380818068808365
:1015D0001092C10008958E3008F08E5087702091CF
:1015E000230190E4299F90011124822B80937C0099
:1015F00080917A00806480937A0080917A0086FDE1
:10160000FCCF809178002091790090E0922B089592
:101610001F93CF93DF93182FEB0161E00E94900B93
:10162000209711F460E004C0CF3FD10539F461E0A8
:10163000812FDF91CF911F910C94C90BE12FF0E026
:10164000E858FF4FE491E330F9F048F4E130B9F0A5
:10165000E230A1F584B5806284BDC8BD34C0E730F6
:10166000E9F0E83019F1E43049F5809180008062BA
:1016700080938000D0938B00C0938A0024C084B5EF
:10168000806884BDC7BD1FC0809180008068809342
:101690008000D0938900C093880015C08091B0006D
:1016A00080688093B000C093B3000DC08091B000FB
:1016B00080628093B000C093B40005C0C038D105EB
:1016C0000CF0B5CFAFCFDF91CF911F91089583304C
:1016D00081F028F4813099F08230A1F008958730AC
:1016E000A9F08830B9F08430D1F4809180008F7DEA
:1016F00003C0809180008F7780938000089584B527
:101700008F7702C084B58F7D84BD08958091B0002D
:101710008F7703C08091B0008F7D8093B0000895D3
:10172000CF93DF9390E0FC01E457FF4F2491FC013D
:10173000E056FF4F8491882349F190E0880F991F6C
:10174000FC01E853FF4FA591B49182549F4FFC01D7
:10175000C591D4919FB7611108C0F8948C912095E0
:1017600082238C93888182230AC0623051F4F894DA
:101770008C91322F309583238C938881822B8883A0
:1017800004C0F8948C91822B8C939FBFDF91CF91F2
:1017900008950F931F93CF93DF931F92CDB7DEB7BA
:1017A000282F30E0F901E858FF4F8491F901E45700
:1017B000FF4F1491F901E056FF4F04910023C9F047
:1017C000882321F069830E94670B6981E02FF0E094
:1017D000EE0FFF1FE254FF4FA591B4919FB7F8940D
:1017E0008C91611103C01095812301C0812B8C93D2
:1017F0009FBF0F90DF91CF911F910F910895CF93CD
:10180000DF93282F30E0F901E858FF4F8491F90168
:10181000E457FF4FD491F901E056FF4FC491CC2318
:1018200091F081110E94670BEC2FF0E0EE0FFF1F8B
:10183000EC54FF4FA591B4912C912D2381E090E0C1
:1018400021F480E002C080E090E0DF91CF91089524
:10185000FC01818D228D90E0805C9F4F821B91095D
:101860008F7399270895FC01918D828D981731F01F
:10187000828DE80FF11D858D90E008958FEF9FEF29
:101880000895FC01918D828D981761F0828DDF01A2
:10189000A80FB11D5D968C91928D9F5F9F73928F63
:1018A00090E008958FEF9FEF089585EC9DE0892BE0
:1018B00049F080E090E0892B29F00E94C50D81114C
:1018C0000C9400000895FC01848DDF01A80FB11D68
:1018D000A35ABF4F2C91848D90E001968F73992766
:1018E000848FA689B7892C93A089B1898C91806453
:1018F0008C93938D848D981306C00288F389E02D14
:1019000080818F7D80830895CF93DF93EC01888D54
:101910008823C9F0EA89FB89808185FD05C0A889F3
:10192000B9898C9186FD0FC00FB607FCF5CF808179
:1019300085FFF2CFA889B9898C9185FFEDCFCE01C3
:101940000E94630CE7CFDF91CF910895CF92DF9291
:10195000FF920F931F93CF93DF931F92CDB7DEB704
:101960006C0181E0D60158968C9358975B969C91B8
:101970005B975C968C915C97981307C05096ED919D
:10198000FC915197808185FD2EC0F601038D10E0FA
:101990000F5F1F4F0F731127F02EF601848DF81281
:1019A00011C00FB607FCF9CFD6015096ED91FC910E
:1019B0005197808185FFF1CFC60169830E94630C36
:1019C0006981EBCF838DE80FF11DE35AFF4F6083F0
:1019D000D6015B960C935B975296ED91FC915397D1
:1019E000808180620CC0D6015696ED91FC9157978C
:1019F00060835096ED91FC91519780818064808343
:101A000081E090E00F90DF91CF911F910F91FF90B7
:101A1000DF90CF900895BF92CF92DF92EF92FF9226
:101A2000CF93DF93EC016A017B01B22EE889F9893B
:101A300082E08083411581EE580761057105A1F0B0
:101A400060E079E08DE390E0A70196010E947F11AC
:101A500021503109410951095695479537952795E8
:101A6000211580E1380798F0E889F989108260E84B
:101A700074E88EE190E0A70196010E947F11215049
:101A80003109410951095695479537952795EC85B8
:101A9000FD853083EE85FF852083188EEC89FD89D6
:101AA000B082EA89FB89808180618083EA89FB8931
:101AB000808188608083EA89FB8980818068808357
:101AC000EA89FB8980818F7D8083DF91CF91FF90B0
:101AD000EF90DF90CF90BF9008951F920F920FB6B6
:101AE0000F9211242F938F939F93EF93FF93E09185
:101AF0004103F09142038081E0914703F091480354
:101B000082FD12C0908180914A038F5F8F73209174
:101B10004B03821751F0E0914A03F0E0EF5CFC4F79
:101B2000958F80934A0301C08081FF91EF919F912F
:101B30008F912F910F900FBE0F901F9018951F92AD
:101B40000F920FB60F9211242F933F934F935F93F1
:101B50006F937F938F939F93AF93BF93EF93FF9375
:101B600081E393E00E94630CFF91EF91BF91AF91ED
:101B70009F918F917F916F915F914F913F912F91A5
:101B80000F900FBE0F901F90189581E393E00E9475
:101B9000280C21E0892B09F420E0822F089510926F
:101BA00034031092330388EE93E0A0E0B0E080931A
:101BB000350390933603A0933703B093380383E340
:101BC00092E0909332038093310385EC90E0909300
:101BD0003E0380933D0384EC90E090934003809318
:101BE0003F0380EC90E0909342038093410381ECAB
:101BF00090E0909344038093430382EC90E09093B1
:101C000046038093450386EC90E0909348038093CD
:101C1000470310924A0310924B0310924C03109208
:101C20004D03089508950E94B00A0E94120E0E946A
:101C3000E400C5E5DCE00E9477012097E1F30E9413
:101C4000550CF9CFCF92DF92EF92FF920F931F9333
:101C5000CF93DF937C016A01EB0100E010E00C15EB
:101C60001D0571F06991D701ED91FC910190F08112
:101C7000E02DC7010995892B19F00F5F1F4FEFCF9A
:101C8000C801DF91CF911F910F91FF90EF90DF90EE
:101C9000CF9008956115710581F0DB010D90002052
:101CA000E9F7AD0141505109461B570BDC01ED919D
:101CB000FC910280F381E02D099480E090E008958A
:101CC0000C944A0EDC01ED91FC910190F081E02D25
:101CD000099464EE71E00C944A0E0F931F93CF9316
:101CE000DF93EC010E944A0E8C01CE010E94690E26
:101CF000800F911FDF91CF911F910F9108950F9346
:101D00001F93CF93DF93EC010E94620E8C01CE01F2
:101D10000E94690E800F911FDF91CF911F910F914B
:101D200008958F929F92AF92BF92CF92DF92EF92DF
:101D3000FF920F931F93CF93DF93CDB7DEB7A19799
:101D40000FB6F894DEBF0FBECDBF7C01C42EE52FC9
:101D5000CB01D22E19A221E02D1510F02AE0D22EAF
:101D60008E010F5D1F4F8D2C912CA12CB12C6C2D51
:101D70007E2FA50194010E947F118C2DD29E801987
:101D80001124015011098A3014F4805D01C0895C6E
:101D9000F8018083211531054105510521F0C22E3E
:101DA000E32FCA01E4CFB801C7010E944A0EA196F1
:101DB0000FB6F894DEBF0FBECDBFDF91CF911F915C
:101DC0000F91FF90EF90DF90CF90BF90AF909F90DA
:101DD0008F900895CF92DF92EF92FF920F931F930F
:101DE000CF93DF93EC016A017B012115310579F472
:101DF000E881F9810190F081E02D642FDF91CF918E
:101E00001F910F91FF90EF90DF90CF9009942A30AF
:101E10003105E9F477FF1AC06DE20E94620E8C0171
:101E200044275527BA014C195D096E097F092AE03C
:101E3000CE010E94910E800F911FDF91CF911F91D3
:101E40000F91FF90EF90DF90CF9008952AE0B701B7
:101E5000A601CE01DF91CF911F910F91FF90EF90DE
:101E6000DF90CF900C94910E9A01AB01662757FD3D
:101E70006095762F0C94EA0E0F931F93CF93DF9308
:101E8000EC019A01AB01662757FD6095762F0E9401
:101E9000EA0E8C01CE010E94690E800F911FDF9126
:101EA000CF911F910F9108952115310541F4DC0167
:101EB000ED91FC910190F081E02D642F09940C9438
:101EC000910E9A01462F50E060E070E00C94540FA0
:101ED0000F931F93CF93DF93EC010E944E0A688704
:101EE00079878A879B87E881F9810084F185E02DD5
:101EF000CE01099597FF15C00E944E0A08851985E5
:101F00002A853B85601B710B820B930B0C811D8115
:101F10002E813F81601771078207930720F38FEFAF
:101F20009FEFDF91CF911F910F910895CF93DF9392
:101F3000EC01CE010E94680F97FD11C08D32910512
:101F400071F09C01205331092A30310540F0E881BD
:101F5000F9810680F781E02DCE010995EACFDF9166
:101F6000CF910895CF92DF92FF920F931F93CF935B
:101F7000DF9300D000D0CDB7DEB76C01062F0E94F2
:101F8000960FFC0197FD4BC020E030E0A901F12C39
:101F9000112707FD1095E017F107E9F0ED32F10583
:101FA000C1F0CF01C0970A97B0F4AAE0B0E00E9458
:101FB000C6119B01AC01CF01AA2797FDA095BA2FAE
:101FC000280F391F4A1F5B1F20533109410951094E
:101FD00002C0FF24F394D601ED91FC910680F781B5
:101FE000E02DC60129833A834B835C830995C601A2
:101FF0000E94680FFC01C09729813A814B815C8166
:102000000A9748F2E017F10731F2FF2061F06627E6
:102010007727CB01621B730B840B950B06C060E026
:1020200070E0CB0102C0CA01B9010F900F900F9070
:102030000F90DF91CF911F910F91FF90DF90CF9084
:10204000089561E00C94B20F4F925F926F927F926D
:10205000AF92BF92CF92DF92EF92FF920F931F93B6
:10206000CF93DF93CDB7DEB729013A01621B730B23
:10207000840B950B29893A894B895C892A193B097C
:102080004C095D09298B3A8B4B8B5C8B9B01AC0116
:1020900069897A898B899C890E944711E418F5081F
:1020A00006091709A80197010E94A1112A0D3B1DDD
:1020B0004C1D5D1DCA01B901DF91CF911F910F9198
:1020C000FF90EF90DF90CF90BF90AF907F906F9098
:1020D0005F904F900895FC01808191810C9478125B
:1020E000CF93DF93EC0188819981009711F00E94D2
:1020F0007812198218821D821C821B821A82DF913B
:10210000CF9108950F931F93CF93DF93EC018B0131
:102110006F5F7F4F888199810E940713009731F08C
:10212000998388831B830A8381E001C080E0DF916B
:10213000CF911F910F910895CF93DF93EC01888188
:102140009981892B29F08A819B818617970760F4F2
:10215000CE010E948210882341F08C819D81892BC1
:1021600019F4E881F981108281E0DF91CF9108951F
:10217000EF92FF920F931F93CF93DF93EC017B01BC
:102180008A01BA010E949C10811104C0CE010E94F4
:10219000701007C01D830C83B701888199810E944C
:1021A000DA13CE01DF91CF911F910F91FF90EF9045
:1021B0000895FC011182108213821282158214820A
:1021C0006115710559F0FB0101900020E9F7AF019D
:1021D00041505109461B570B0C94B8100895CF93EA
:1021E000DF93EC016115710561F0FB0101900020A6
:1021F000E9F7AF0141505109461B570B0E94B81037
:1022000002C00E947010CE01DF91CF910895EF922D
:10221000FF920F931F93CF93DF93EC017B010C810F
:102220001D816115710511F480E016C0411551053D
:1022300091F0040F151FB8010E949C108823A1F390
:10224000288139818C819D81B701820F931F0E9463
:10225000DA131D830C8381E0DF91CF911F910F91E1
:10226000FF90EF900895CF93DF9300D0CDB7DEB706
:1022700069831A8241E050E0BE016F5F7F4F0E9488
:1022800007110F900F90DF91CF9108950895DB0112
:102290008F939F930E94C611BF91AF91A29F800D13
:1022A000911DA39F900DB29F900D11240895AA1B1C
:1022B000BB1B51E107C0AA1FBB1FA617B70710F031
:1022C000A61BB70B881F991F5A95A9F78095909563
:1022D000BC01CD01089597FB072E16F4009407D09A
:1022E00077FD09D00E94571107FC05D03EF4909568
:1022F00081959F4F0895709561957F4F0895A1E254
:102300001A2EAA1BBB1BFD010DC0AA1FBB1FEE1F6F
:10231000FF1FA217B307E407F50720F0A21BB30BBA
:10232000E40BF50B661F771F881F991F1A9469F736
:1023300060957095809590959B01AC01BD01CF0192
:102340000895052E97FB1EF400940E94B81157FDC6
:1023500007D00E947F1107FC03D04EF40C94B811F3
:1023600050954095309521953F4F4F4F5F4F0895C1
:1023700090958095709561957F4F8F4F9F4F0895F1
:10238000EE0FFF1F0590F491E02D09940E94D111EA
:10239000A59F900DB49F900DA49F800D911D1124B9
:1023A0000895A29FB001B39FC001A39F700D811D2E
:1023B0001124911DB29F700D811D1124911D08954E
:1023C000CF93DF938230910510F482E090E0E091AA
:1023D000D003F091D10320E030E0A0E0B0E03097EE
:1023E00039F14081518148175907B8F0481759070A
:1023F00071F482819381109729F013969C938E93A8
:1024000012972CC09093D1038093D00327C021153D
:10241000310531F04217530718F0A901DB0101C063
:10242000EF019A01BD01DF010280F381E02DD7CFDA
:1024300021153105F9F0281B390B2430310580F4C2
:102440008A819B816115710521F0FB019383828351
:1024500004C09093D1038093D003FE01329644C010
:10246000FE01E20FF31F81939193225031093983CA
:1024700028833AC02091CE033091CF03232B41F41F
:1024800020910201309103013093CF032093CE03BA
:1024900020910001309101012115310541F42DB742
:1024A0003EB74091040150910501241B350BE0918A
:1024B000CE03F091CF03E217F307A0F42E1B3F0BDE
:1024C0002817390778F0AC014E5F5F4F24173507A6
:1024D00048F04E0F5F1F5093CF034093CE0381937C
:1024E000919302C0E0E0F0E0CF01DF91CF91089539
:1024F000CF93DF93009709F487C0FC0132971382D2
:102500001282C091D003D091D103209781F4208111
:102510003181280F391F8091CE039091CF0382170C
:10252000930779F5F093CF03E093CE036DC0DE01FE
:1025300020E030E0AE17BF0750F412964D915C9149
:1025400013979D014115510509F1DA01F3CFB383CA
:10255000A28340815181840F951F8A179B0771F4D4
:102560008D919C911197840F951F02969183808382
:1025700012968D919C911397938382832115310537
:1025800029F4F093D103E093D0033EC0D901139610
:10259000FC93EE9312974D915D91A40FB51FEA172E
:1025A000FB0779F480819181840F951F0296D901F0
:1025B00011969C938E938281938113969C938E9314
:1025C0001297E0E0F0E08A819B81009719F0FE010C
:1025D000EC01F9CFCE01029628813981820F931F39
:1025E0002091CE033091CF032817390769F4309733
:1025F00029F41092D1031092D00302C013821282E8
:10260000D093CF03C093CE03DF91CF910895A0E084
:10261000B0E0EDE0F3E10C94E513EC01CB01209781
:1026200019F40E94E011B8C0FE01E60FF71F9E01E9
:1026300022503109E217F30708F4ACC0D9010D911B
:102640001C91119706171707B8F00530110508F40B
:102650009FC0A801445051094617570708F498C075
:1026600002501109061B170B019311936D937C9374
:10267000CF010E9478128CC05B01A01AB10A4E01F2
:10268000800E911EA091D003B091D103612C712CCA
:1026900060E070E0109709F449C0A815B905C9F5C4
:1026A000ED90FC901197670142E0C40ED11CCA1452
:1026B000DB0478F147018A189B08640142E0C40EEC
:1026C000D11C1296BC9012971396AC91B5E0CB1624
:1026D000D10440F0B282A38391828082D9018D938C
:1026E0009C9309C00E5F1F4F0E0D1F1DF901118332
:1026F0000083EB2DFA2F6115710531F0DB01139684
:10270000FC93EE93129744C0F093D103E093D0036F
:102710003FC06D917C9111976616770608F43B01D6
:10272000BD0112960D90BC91A02DB4CF6091CE0347
:102730007091CF0368157905E9F468167906D0F42D
:1027400040910001509101014115510541F44DB7EF
:102750005EB76091040170910501461B570BE417A9
:10276000F507C0F4F093CF03E093CE03F901918312
:1027700080830EC00E94E0117C01009759F0A801EF
:10278000BE010E94D113CE010E947812C70104C07D
:10279000CE0102C080E090E0CDB7DEB7EEE00C9451
:1027A0000114FB01DC0102C001900D924150504028
:1027B000D8F70895FB01DC0101900D920020E1F7AC
:1027C00008952F923F924F925F926F927F928F92D5
:1027D0009F92AF92BF92CF92DF92EF92FF920F93B0
:1027E0001F93CF93DF93CDB7DEB7CA1BDB0B0FB6BA
:1027F000F894DEBF0FBECDBF09942A883988488877
:102800005F846E847D848C849B84AA84B984C8840C
:10281000DF80EE80FD800C811B81AA81B981CE0F03
:10282000D11D0FB6F894DEBF0FBECDBFED010895E8
:1028300010E0C6EDD0E004C0FE010E94C211229655
:0A284000C83DD107C9F7F894FFCF97
:10284A000000D203800001000000110010000F00F8
:10285A00414243444546474848070009000800905A
:10286A0001000001564D4450565F317C315F564D90
:10287A004450560D0A0041726475696E6F20547295
:10288A00616E736D6974746572205665722E302E8E
:10289A003100436F6E6E656374696F6E20457374A1
:1028AA0065626C69736865640009004B657931007B
:1028BA004B657932004B657933004B657934004BAF
:1028CA00657935004B657936004B657937004B657C
:1028DA007938006765745F636861723A20006172D3
:1028EA00645F636F6D6D616E643A20005265636563
:1028FA0069766564204B65793A0020416E616C6F98
:10290A00672030203D200000000000DD06220E492D
:10291A0007BC062F076107564D4450435F005F56B8
:10292A004D4450430D0A004572726F723A20417449
:10293A0074656D707420746F2073657420612072E1
:10294A006561642D6F6E6C79207661726961626C63
:10295A0065206F7220646174612074797065206EDD
:10296A006F7420737570706F727465640D0A00005D
:10297A00000000A60C220E280C410C330C840C6EAD
:0E298A00616E00696E66006F7666002E0000BA
:00000001FF
