:100000000C946C000C9494000C9494000C949E0638
:100010000C949E060C949E060C9494000C949400F0
:100020000C9494000C9494000C9494000C94940000
:100030000C9494000C9472050C9494000C9494000D
:100040000C94F3080C9494000C945C0C0C948E0C9F
:100050000C9494000C9494000C9494000C949400D0
:100060000C9494000C949400BC010E026002B20245
:1000700004035603A803FA0300000008000201006D
:100080000003040700000000000000000102040853
:1000900010204080010204081020010204081020F2
:1000A000040404040404040402020202020203031E
:1000B00003030303000000002300260029000000C2
:1000C0000000250028002B0000000000240027006D
:1000D0002A00CF00BE0CDC0011241FBECFEFD8E0F9
:1000E000DEBFCDBF12E0A0E0B1E0E8E2F6E202C080
:1000F00005900D92AE34B107D9F723E0AEE4B2E03B
:1001000001C01D92A23CB207E1F710E0C6EDD0E0BD
:1001100004C02297FE010E94B110C23DD107C9F769
:100120000E94020D0C9407130C940000DF92EF92D2
:10013000FF920F931F93CF93DF93D82EF62E61E09B
:100140008F2D0E947F0A60E08D2D0E947F0AE12C96
:10015000C7E0D0E001E010E060E08F2D0E94B80A17
:1001600080E090E00E9494098D2D0E94EE0A892B78
:1001700039F098010C2E01C0220F0A94EAF7E22A06
:1001800061E08F2D0E94B80A219730F78E2DDF9104
:10019000CF911F910F91FF90EF90DF90089520E095
:1001A00043E062E08AE792E00E9471076AE671E04C
:1001B0008EE492E00C94C80F8EE492E00E945A0FF5
:1001C0008AE792E00C94180740ED57E060E070E099
:1001D00081EE92E00E945A0820E835E240E050E0CB
:1001E00061E273E081EE92E00E946D0881EE92E0A0
:1001F0000E94570864E271E080911203909113030A
:100200000E944F0D6AE070E080E090E00E946C096F
:1002100041E060E081EE92E00E94D80840E855E2BB
:1002200060E070E08AE792E00E94A10726E040E8E3
:1002300055E260E070E081E293E00E94FA0B66E331
:1002400071E081E293E00E945C0D62E571E08AE773
:1002500092E00E945C0D8AE792E00E94500661E005
:1002600080911D010E947F0A61E0809119010E9426
:100270007F0A60E080911B010E947F0A529A539A84
:10028000549A559A569A579A209A219A5A9A84EFD4
:1002900091E00E94A1055A985B9A84EF91E00E9438
:1002A000A1055B985C9A84EF91E00E94A1055C989F
:1002B0005D9A84EF91E00E94A1055D985E9A84EFBB
:1002C00091E00E94A1055E985F9A84EF91E00E9400
:1002D000A1055F98289A84EF91E00E94A1052898D3
:1002E000299A84EF91E00E94A10529980895AF9280
:1002F000BF92CF92DF92EF92FF920F931F93CF9313
:10030000DF9361E080911D010E94B80A84E190E0D2
:100310000E94940960E080911D010E94B80A6091DA
:10032000190170911A0180911B0190911C010E948A
:10033000960080931801C0E0D0E08091180190E011
:100340000C2E02C0959587950A94E2F780FFA6C20D
:10035000FE01E05FFE4F8081992787FD9095A92FD0
:10036000B92FFC01E154F109E830F10508F096C21B
:10037000EC5CFF4F0C94AF100E943D09C0907602D8
:10038000D0907702E0907802F09079026C197D09A4
:100390008E099F09C0901F01D0902001E09021019B
:1003A000F0902201C616D706E806F90608F076C2D4
:1003B0006AE28AE792E00E946E0D4AE050E06AE04D
:1003C00070E08AE792E00E942B0E6CE78AE792E0E9
:1003D0000E946E0D4AE050E061E070E08AE792E032
:1003E0000E94230E63E28AE792E00E946E0D69E6A6
:1003F00071E08AE792E00E945C0D0E943D096093E3
:1004000076027093770280937802909379028AE75C
:1004100092E00E9450066BE671E03CC20E943D09EA
:10042000C0907202D0907302E0907402F090750256
:100430006C197D098E099F09C0901F01D090200181
:10044000E0902101F0902201C616D706E806F906D1
:1004500008F024C26AE28AE792E00E946E0D4AE048
:1004600050E06AE070E08AE792E00E942B0E6CE7B1
:100470008AE792E00E946E0D4AE050E062E070E090
:100480008AE792E00E94230E63E28AE792E00E94EC
:100490006E0D69E671E08AE792E00E945C0D0E94B1
:1004A0003D0960937202709373028093740290937B
:1004B00075028AE792E00E94500660E771E0EAC1A7
:1004C0000E943D09C0906E02D0906F02E0907002D1
:1004D000F09071026C197D098E099F09C0901F016F
:1004E000D0902001E0902101F0902201C616D7069D
:1004F000E806F90608F0D2C16AE28AE792E00E94B3
:100500006E0D4AE050E06AE070E08AE792E00E94F7
:100510002B0E6CE78AE792E00E946E0D4AE050E0F5
:1005200063E070E08AE792E00E94230E63E28AE7CC
:1005300092E00E946E0D69E671E08AE792E00E9407
:100540005C0D0E943D0960936E0270936F02809370
:100550007002909371028AE792E00E94500665E76C
:1005600071E098C10E943D09C0906A02D0906B0270
:10057000E0906C02F0906D026C197D098E099F0964
:10058000C0901F01D0902001E0902101F090220145
:10059000C616D706E806F90608F080C16AE28AE7BF
:1005A00092E00E946E0D4AE050E06AE070E08AE757
:1005B00092E00E942B0E6CE78AE792E00E946E0D9B
:1005C0004AE050E064E070E08AE792E00E94230E87
:1005D00063E28AE792E00E946E0D69E671E08AE7C5
:1005E00092E00E945C0D0E943D0960936A02709344
:1005F0006B0280936C0290936D028AE792E00E94F6
:1006000050066AE771E046C10E943D09C09066024B
:10061000D0906702E0906802F09069026C197D0941
:100620008E099F09C0901F01D0902001E090210108
:10063000F0902201C616D706E806F90608F02EC18A
:100640006AE28AE792E00E946E0D4AE050E06AE0BA
:1006500070E08AE792E00E942B0E6CE78AE792E056
:100660000E946E0D4AE050E065E070E08AE792E09B
:100670000E94230E63E28AE792E00E946E0D69E613
:1006800071E08AE792E00E945C0D0E943D09609350
:1006900066027093670280936802909369028AE70A
:1006A00092E00E9450066FE771E0F4C00E943D099D
:1006B000C0906202D0906302E0906402F090650204
:1006C0006C197D098E099F09C0901F01D0902001EF
:1006D000E0902101F0902201C616D706E806F9063F
:1006E00008F0DCC06AE28AE792E00E946E0D4AE000
:1006F00050E06AE070E08AE792E00E942B0E6CE71F
:100700008AE792E00E946E0D4AE050E066E070E0F9
:100710008AE792E00E94230E63E28AE792E00E9459
:100720006E0D69E671E08AE792E00E945C0D0E941E
:100730003D09609362027093630280936402909318
:1007400065028AE792E00E94500664E871E0A2C068
:100750000E943D09C0905E02D0905F02E09060026E
:10076000F09061026C197D098E099F09C0901F01EC
:10077000D0902001E0902101F0902201C616D7060A
:10078000E806F90608F08AC06AE28AE792E00E9469
:100790006E0D4AE050E06AE070E08AE792E00E9465
:1007A0002B0E6CE78AE792E00E946E0D4AE050E063
:1007B00067E070E08AE792E00E94230E63E28AE736
:1007C00092E00E946E0D69E671E08AE792E00E9475
:1007D0005C0D0E943D0960935E0270935F028093FE
:1007E0006002909361028AE792E00E94500669E8F5
:1007F00071E050C00E943D09C0905A02D0905B0247
:10080000E0905C02F0905D026C197D098E099F09F1
:10081000C0901F01D0902001E0902101F0902201B2
:10082000C616D706E806F906C8F56AE28AE792E036
:100830000E946E0D4AE050E06AE070E08AE792E0C4
:100840000E942B0E6CE78AE792E00E946E0D4AE050
:1008500050E068E070E08AE792E00E94230E63E2D5
:100860008AE792E00E946E0D69E671E08AE792E005
:100870000E945C0D0E943D0960935A0270935B02D6
:1008800080935C0290935D028AE792E00E9450069A
:100890006EE871E081E293E00E945C0D2196C83021
:1008A000D10509F04ACD80910E010E94DA0990939A
:1008B000590280935802BC01882777FD8095982FB4
:1008C0001F921F921F92C3EBCF93A12CB12C6501F5
:1008D000EE24EA9413E0F12E00E010E020E030E096
:1008E000A9010E94130F70935902609358028091DE
:1008F0000C010E94DA099093570280935602BC01C2
:10090000882777FD8095982F1F921F921F92CF9373
:1009100020E030E0A9010E94130F7093570260930A
:10092000560280910A010E94DA0990935502809341
:100930005402BC01882777FD8095982F1F921F9243
:100940001F92CF9320E030E0A9010E94130F709313
:1009500055026093540281E293E00E94170B2DB779
:100960003EB7245F3F4F0FB6F8943EBF0FBE2DBF7A
:10097000181619060CF0ABC081E293E00E94300B10
:10098000C82F63E971E081E293E00E945C0D6C2F57
:1009900081E293E00E946E0DCA3209F098C081E2B4
:1009A00093E00E94100F6B017C01EB016EE971E096
:1009B00081E293E00E945C0D4AE050E0B60181E2E2
:1009C00093E00E942B0E81E293E00E94100F162FFD
:1009D00081E293E00E94100F6B017C01CC30D105C5
:1009E00049F56AE671E08EE492E00E94DE0F81E252
:1009F00093E00E94170B892B09F459C081E293E020
:100A00000E94300BC82F65E070E080E090E00E940B
:100A10006C09C33209F44BC0CC3749F36C2F8EE418
:100A200092E00E94221065E070E080E090E00E9479
:100A30006C09DDCFCA30D10571F46CEA71E081E256
:100A400093E00E945C0D4AE050E0B60181E293E041
:100A50000E942B0E2CC0CB30D10569F4812FDF9181
:100A6000CF911F910F91FF90EF90DF90CF90BF90AB
:100A7000AF900C94F7092D97D1F46AEB71E081E205
:100A800093E00E944F0D8EE00E94DA094AE050E0A8
:100A9000BC0181E293E0DF91CF911F910F91FF9014
:100AA000EF90DF90CF90BF90AF900C942B0E6CE244
:100AB00071E080E090E0DF91CF911F910F91FF9066
:100AC000EF90DF90CF90BF90AF900C946C09DF91C6
:100AD000CF911F910F91FF90EF90DF90CF90BF903B
:100AE000AF9008951F920F920FB60F9211242F937B
:100AF0003F934F935F936F937F938F939F93AF93A6
:100B0000BF93EF93FF938091990290919A029093F3
:100B1000850080938400E0919B02F0919C020995EE
:100B2000FF91EF91BF91AF919F918F917F916F91C5
:100B30005F914F913F912F910F900FBE0F901F909B
:100B400018952CE93FE0009729F0F9013197F1F76A
:100B50000197F9CF08952091DF023091E002281724
:100B60003907B9F490919D0280919E02981789F0FF
:100B7000E0919D02F0E0E156FD4F808120919D02C1
:100B800030E02F5F3F4F2F73332720939D0290E07B
:100B900008958FEF9FEF08951F93CF93DF93DC01AC
:100BA0005C968D919C915D97009749F481E090E06F
:100BB00013969C938E93129780E090E03BC05196E1
:100BC000ED91FC91529750962C915097322F309581
:100BD0001FB75E964C915E9741FB772770F941FDF8
:100BE0006095F8944081772311F0422B01C0432394
:100BF0004083EC012197F1F748E0508160FF02C08B
:100C0000522B01C053235083EC012197F1F76695D5
:100C1000415099F78081772311F0832301C0822B03
:100C200080831FBF5C968D919C915D970197F1F732
:100C300081E090E0DF91CF911F9108952091DF0234
:100C40003091E0022817390781F490919D0280913C
:100C50009E02981751F0E0919D02F0E0E156FD4FA1
:100C60008081992787FD909508958FEF9FEF0895D4
:100C70002091DF023091E0022817390771F480914A
:100C80009E0220919D0290E0805C9F4F821B910903
:100C900060E470E00E945A10089580E090E00895AA
:100CA0002091DF023091E0022817390739F48FB71D
:100CB000F89410929E0210929D028FBF0895E091C9
:100CC000DF02F091E002E817F90769F4A389B4891B
:100CD0009C918589809589238C931092E0021092D3
:100CE000DF0281E0089580E00895CF93DF93EC0167
:100CF0008A8D9B8D892BF1F08091DF029091E0022B
:100D00008C179D07B9F0009711F00E945F068E8D39
:100D10008E7F8E8F10929E0210929D02D093E002E1
:100D2000C093DF02EB89FC8980819D89892B8083B8
:100D300081E001C080E0DF91CF9108951F920F9272
:100D40000FB60F9211242F933F934F935F936F939E
:100D50007F938F939F93AF93BF93EF93FF93E09114
:100D6000DF02F091E002309709F451C0868DA6852C
:100D7000B785958581FF04C08C91892329F447C0EC
:100D80008C91892309F043C0A389B4899C918589FA
:100D9000809589238C93868997890197F1F7208D17
:100DA000318DA685B785758558E040E0C90101976A
:100DB000F1F7842F90E095958795482F6C916723E4
:100DC00009F04068515091F7868D81FD40958091E2
:100DD0009E0290E001968F73992720919D0228171B
:100DE00049F0A0919E02B0E0A156BD4F4C93809374
:100DF0009E0203C0868D8160868F828D938D0197C0
:100E0000F1F7A389B4898C919589892B8C93FF91F3
:100E1000EF91BF91AF919F918F917F916F915F9172
:100E20004F913F912F910F900FBE0F901F901895EB
:100E30002BEC31E0FC01318320830C945F061F937F
:100E4000CF93DF93EC01162F6E8D6695617081E074
:100E50006827812F0E94B80A61E0812F0E947F0AD3
:100E6000812F90E0FC01E457FF4FE491E88BFC01F7
:100E7000E056FF4FE491F0E0EE0FFF1FE254FF4F0A
:100E8000859194919A8B898BDF91CF911F910895D1
:100E90001F93CF93DF93EC01162F60E0812F0E9408
:100EA0007F0A8E8D81FD04C061E0812F0E94B80A07
:100EB0001C87812F90E0FC01E457FF4FE491ED8700
:100EC000FC01E056FF4FE491F0E0EE0FFF1FEC5401
:100ED000FF4F859194919F878E87DF91CF911F91CE
:100EE0000895FF920F931F93CF93DF93EC01F62E9B
:100EF000522F1B821A8208EE13E020E030E00C83B0
:100F00001D832E833F838BEC91E0998388831F8A16
:100F10001E8A198E188E1B8E1A8E1D8E1C8E8E8D1B
:100F20008E7F50FB81F98E8F642FCE010E941F07A8
:100F30006F2DCE01DF91CF911F910F91FF900C94F7
:100F40004807CF93DF93EC019A01AB011B8E1A8EF9
:100F5000198E188E1F8A1E8A60E079E08DE390E07A
:100F60000E949010C9012430310520F0B90163506E
:100F7000710902C061E070E07D8F6C8FEC85E63115
:100F800008F068C0B901769567956431710518F06D
:100F90006351710902C061E070E07F8B6E8B069730
:100FA00018F0C901059702C081E090E0998F888F01
:100FB000C901880F991F820F931F96958795969563
:100FC00087958D30910510F00C9702C081E090E07C
:100FD0009B8F8A8F20916800E83050F091E0EE30CE
:100FE00008F490E081E001C0880F9A95EAF701C00B
:100FF00084E0822B809368002C85283038F02E30D6
:1010000040F0263148F48CE690E008C08DE690E090
:1010100005C08BE690E002C080E090E09C8B8B8B5B
:10102000283030F481E001C0880F2A95EAF70DC01E
:10103000822F90E02E3010F4089701C00E9791E0B7
:1010400001C0990F8A95EAF7892F8D8B8C8D9D8D24
:101050000197F1F7CE01DF91CF910C9475060F93B4
:101060001F93CF93DF93EC01662359F00E943D0953
:1010700069837A838B839C83DF91CF911F910F913A
:1010800008950E943D0909811A812B813C81601BD2
:10109000710B820B930B643671058105910530F756
:1010A00063E070E080E090E00E946C09EACF60E0CD
:1010B0000C942F08FC0113AA14AA15AA16AA1182CF
:1010C000128213821482411551056105710521F0C8
:1010D000CB01BA010C946C090895FB01BA01A90176
:1010E000DC01D296FC93EE93D19726E0CF010C94CD
:1010F000FA0B1F93CF93DF93EC01162F67ED71E08E
:1011000089A99AA90E944F0D4AE050E0612F89A950
:101110009AA90E94500E6EED71E089A99AA90E94C9
:101120004F0D62E370E080E090E0DF91CF911F917E
:101130000C946C091F93CF93DF93EC01162F8D81D4
:10114000882389F189A99AA9DC01ED91FC91048099
:10115000F581E02D0995892BA9F307C026373105C4
:1011600019F12835310509F41D8289A99AA9DC01F4
:10117000ED91FC910480F581E02D09951816190672
:1011800094F489A99AA9DC01ED91FC910680F7817C
:10119000E02D09959C01332723363105F9F6612F9F
:1011A000CE010E94790883E6DF91CF911F910895C7
:1011B0000F931F93CF93DF931F92CDB7DEB78C01B0
:1011C000662349F081E0F801858360E0C801498326
:1011D0000E949A084981F80145830F90DF91CF91D1
:1011E0001F910F9108951F920F920FB60F92112425
:1011F0002F933F938F939F93AF93BF938091190346
:1012000090911A03A0911B03B0911C033091180315
:1012100023E0230F2D3720F40196A11DB11D05C039
:1012200026E8230F0296A11DB11D20931803809379
:10123000190390931A03A0931B03B0931C0380918E
:101240001D0390911E03A0911F03B09120030196EE
:10125000A11DB11D80931D0390931E03A0931F0336
:10126000B0932003BF91AF919F918F913F912F91A8
:101270000F900FBE0F901F9018952FB7F8946091A4
:10128000190370911A0380911B0390911C032FBFC7
:1012900008953FB7F89480911D0390911E03A0918B
:1012A0001F03B091200326B5A89B05C02F3F19F05E
:1012B0000196A11DB11D3FBF6627782F892F9A2F58
:1012C000620F711D811D911D42E0660F771F881FFF
:1012D000991F4A95D1F70895CF92DF92EF92FF922E
:1012E000CF93DF936B017C010E944909EB01C1148C
:1012F000D104E104F10489F00E9435100E944909EB
:101300006C1B7D0B683E734090F381E0C81AD108D6
:10131000E108F108C851DC4FEACFDF91CF91FF908F
:10132000EF90DF90CF9008958230910538F0880FCC
:10133000991F880F991F05970197F1F708957894E1
:1013400084B5826084BD84B5816084BD85B58260CA
:1013500085BD85B5816085BDEEE6F0E08081816068
:101360008083E1E8F0E01082808182608083808168
:1013700081608083E0E8F0E0808181608083E1EB40
:10138000F0E0808184608083E0EBF0E08081816028
:101390008083EAE7F0E080818460808380818260DE
:1013A00080838081816080838081806880831092C7
:1013B000C10008958E3008F08E508770209123016F
:1013C00090E4299F90011124822B80937C008091CE
:1013D0007A00806480937A0080917A0086FDFCCF49
:1013E000809178002091790090E0922B08951F93CE
:1013F000CF93DF93182FEB0161E00E947F0A2097C3
:1014000011F460E004C0CF3FD10539F461E0812FD1
:10141000DF91CF911F910C94B80AE12FF0E0E858CA
:10142000FF4FE491E330F9F048F4E130B9F0E230F5
:10143000A1F584B5806284BDC8BD34C0E730E9F051
:10144000E83019F1E43049F58091800080628093A2
:101450008000D0938B00C0938A0024C084B580683C
:1014600084BDC7BD1FC080918000806880938000CC
:10147000D0938900C093880015C08091B000806827
:101480008093B000C093B3000DC08091B000806223
:101490008093B000C093B40005C0C038D1050CF0F3
:1014A000B5CFAFCFDF91CF911F910895833081F0F9
:1014B00028F4813099F08230A1F008958730A9F0A6
:1014C0008830B9F08430D1F4809180008F7D03C0E2
:1014D000809180008F7780938000089584B58F7706
:1014E00002C084B58F7D84BD08958091B0008F7750
:1014F00003C08091B0008F7D8093B0000895CF939A
:10150000DF9390E0FC01E457FF4F2491FC01E0568B
:10151000FF4F8491882349F190E0880F991FFC01C7
:10152000E853FF4FA591B49182549F4FFC01C591A0
:10153000D4919FB7611108C0F8948C9120958223B3
:101540008C93888182230AC0623051F4F8948C9184
:10155000322F309583238C938881822B888304C01B
:10156000F8948C91822B8C939FBFDF91CF9108953B
:101570000F931F93CF93DF931F92CDB7DEB7282F22
:1015800030E0F901E858FF4F8491F901E457FF4F2B
:101590001491F901E056FF4F04910023C9F088230C
:1015A00021F069830E94560A6981E02FF0E0EE0F76
:1015B000FF1FE254FF4FA591B4919FB7F8948C910F
:1015C000611103C01095812301C0812B8C939FBFB3
:1015D0000F90DF91CF911F910F910895CF93DF93DB
:1015E000282F30E0F901E858FF4F8491F901E457C2
:1015F000FF4FD491F901E056FF4FC491CC2391F0F5
:1016000081110E94560AEC2FF0E0EE0FFF1FEC5400
:10161000FF4FA591B4912C912D2381E090E021F40E
:1016200080E002C080E090E0DF91CF910895FC015E
:10163000818D228D90E0805C9F4F821B91098F737A
:1016400099270895FC01918D828D981731F0828D34
:10165000E80FF11D858D90E008958FEF9FEF0895BD
:10166000FC01918D828D981761F0828DDF01A80FAA
:10167000B11D5D968C91928D9F5F9F73928F90E0CC
:1016800008958FEF9FEF089584EB9CE0892B49F03C
:1016900080E090E0892B29F00E94B40C81110C9419
:1016A00000000895FC01848DDF01A80FB11DA35A2D
:1016B000BF4F2C91848D90E001968F739927848F72
:1016C000A689B7892C93A089B1898C9180648C9369
:1016D000938D848D981306C00288F389E02D808154
:1016E0008F7D80830895CF93DF93EC01888D8823CD
:1016F000C9F0EA89FB89808185FD05C0A889B9897F
:101700008C9186FD0FC00FB607FCF5CF808185FF59
:10171000F2CFA889B9898C9185FFEDCFCE010E94C7
:10172000520BE7CFDF91CF910895CF92DF92FF92D6
:101730000F931F93CF93DF931F92CDB7DEB76C014A
:1017400081E0D60158968C9358975B969C915B9755
:101750005C968C915C97981307C05096ED91FC9124
:101760005197808185FD2EC0F601038D10E00F5F3B
:101770001F4F0F731127F02EF601848DF81211C040
:101780000FB607FCF9CFD6015096ED91FC91519719
:10179000808185FFF1CFC60169830E94520B698168
:1017A000EBCF838DE80FF11DE35AFF4F6083D60125
:1017B0005B960C935B975296ED91FC9153978081C9
:1017C00080620CC0D6015696ED91FC9157976083CC
:1017D0005096ED91FC91519780818064808381E0E7
:1017E00090E00F90DF91CF911F910F91FF90DF90CC
:1017F000CF900895BF92CF92DF92EF92FF92CF9356
:10180000DF93EC016A017B01B22EE889F98982E05D
:101810008083411581EE580761057105A1F060E0F4
:1018200079E08DE390E0A70196010E946E102150AF
:101830003109410951095695479537952795211545
:1018400080E1380798F0E889F989108260E874E847
:101850008EE190E0A70196010E946E10215031099F
:10186000410951095695479537952795EC85FD8592
:101870003083EE85FF852083188EEC89FD89B08248
:10188000EA89FB89808180618083EA89FB89808184
:1018900088608083EA89FB89808180688083EA8907
:1018A000FB8980818F7D8083DF91CF91FF90EF90C6
:1018B000DF90CF90BF9008951F920F920FB60F92B6
:1018C00011242F938F939F93EF93FF93E091310314
:1018D000F09132038081E0913703F091380382FD6B
:1018E00012C0908180913A038F5F8F7320913B03E8
:1018F000821751F0E0913A03F0E0EF5DFC4F958FD5
:1019000080933A0301C08081FF91EF919F918F9165
:101910002F910F900FBE0F901F9018951F920F924E
:101920000FB60F9211242F933F934F935F936F93B2
:101930007F938F939F93AF93BF93EF93FF9381E236
:1019400093E00E94520BFF91EF91BF91AF919F9155
:101950008F917F916F915F914F913F912F910F9058
:101960000FBE0F901F90189581E293E00E94170B15
:1019700021E0892B09F420E0822F0895109224039E
:101980001092230388EE93E0A0E0B0E0809325035B
:1019900090932603A0932703B093280383E392E058
:1019A000909322038093210385EC90E090932E0383
:1019B00080932D0384EC90E09093300380932F0369
:1019C00080EC90E0909332038093310381EC90E0BF
:1019D000909334038093330382EC90E0909336032A
:1019E0008093350386EC90E090933803809337031F
:1019F00010923A0310923B0310923C0310923D0365
:101A0000089508950E949F090E94010D0E94E4001C
:101A1000C4E4DBE00E9477012097E1F30E94440BCD
:101A2000F9CFCF92DF92EF92FF920F931F93CF9354
:101A3000DF937C016A01EB0100E010E00C151D054D
:101A400071F06991D701ED91FC910190F081E02D49
:101A5000C7010995892B19F00F5F1F4FEFCFC80100
:101A6000DF91CF911F910F91FF90EF90DF90CF907A
:101A700008956115710581F0DB010D900020E9F7F3
:101A8000AD0141505109461B570BDC01ED91FC9112
:101A90000280F381E02D099480E090E008950C9499
:101AA000390DDC01ED91FC910190F081E02D09945C
:101AB00064EE71E00C94390D0F931F93CF93DF9375
:101AC000EC010E94390D8C01CE010E94580D800F4F
:101AD000911FDF91CF911F910F9108950F931F9345
:101AE000CF93DF93EC010E94510D8C01CE010E9437
:101AF000580D800F911FDF91CF911F910F91089585
:101B00008F929F92AF92BF92CF92DF92EF92FF920D
:101B10000F931F93CF93DF93CDB7DEB7A1970FB687
:101B2000F894DEBF0FBECDBF7C01C42EE52FCB01E4
:101B3000D22E19A221E02D1510F02AE0D22E8E010E
:101B40000F5D1F4F8D2C912CA12CB12C6C2D7E2F55
:101B5000A50194010E946E108C2DD29E8019112433
:101B6000015011098A3014F4805D01C0895CF801CC
:101B70008083211531054105510521F0C22EE32F47
:101B8000CA01E4CFB801C7010E94390DA1960FB672
:101B9000F894DEBF0FBECDBFDF91CF911F910F91A3
:101BA000FF90EF90DF90CF90BF90AF909F908F907D
:101BB0000895CF92DF92EF92FF920F931F93CF93EE
:101BC000DF93EC016A017B012115310579F4E8818D
:101BD000F9810190F081E02D642FDF91CF911F9169
:101BE0000F91FF90EF90DF90CF9009942A3031054C
:101BF000E9F477FF1AC06DE20E94510D8C01442771
:101C00005527BA014C195D096E097F092AE0CE01FA
:101C10000E94800D800F911FDF91CF911F910F9136
:101C2000FF90EF90DF90CF9008952AE0B701A601D2
:101C3000CE01DF91CF911F910F91FF90EF90DF9038
:101C4000CF900C94800D9A01AB01662757FD6095EB
:101C5000762F0C94D90D0F931F93CF93DF93EC0144
:101C60009A01AB01662757FD6095762F0E94D90D2A
:101C70008C01CE010E94580D800F911FDF91CF91F2
:101C80001F910F9108952115310541F4DC01ED916B
:101C9000FC910190F081E02D642F09940C94800D4B
:101CA0009A01462F50E060E070E00C94430E0F93D1
:101CB0001F93CF93DF93EC010E943D0968877987DA
:101CC0008A879B87E881F9810084F185E02DCE0128
:101CD000099597FF15C00E943D09088519852A8539
:101CE0003B85601B710B820B930B0C811D812E8138
:101CF0003F81601771078207930720F38FEF9FEFF3
:101D0000DF91CF911F910F910895CF93DF93EC0155
:101D1000CE010E94570E97FD11C08D32910571F0D2
:101D20009C01205331092A30310540F0E881F981C6
:101D30000680F781E02DCE010995EACFDF91CF91A2
:101D40000895CF92DF92FF920F931F93CF93DF936B
:101D500000D000D0CDB7DEB76C01062F0E94850EF3
:101D6000FC0197FD4BC020E030E0A901F12C1127C8
:101D700007FD1095E017F107E9F0ED32F105C1F02C
:101D8000CF01C0970A97B0F4AAE0B0E00E94B51066
:101D90009B01AC01CF01AA2797FDA095BA2F280F70
:101DA000391F4A1F5B1F205331094109510902C0E5
:101DB000FF24F394D601ED91FC910680F781E02D8C
:101DC000C60129833A834B835C830995C6010E942F
:101DD000570EFC01C09729813A814B815C810A979B
:101DE00048F2E017F10731F2FF2061F0662777270C
:101DF000CB01621B730B840B950B06C060E070E097
:101E0000CB0102C0CA01B9010F900F900F900F9043
:101E1000DF91CF911F910F91FF90DF90CF900895A8
:101E200061E00C94A10E4F925F926F927F92AF92FD
:101E3000BF92CF92DF92EF92FF920F931F93CF93B7
:101E4000DF93CDB7DEB729013A01621B730B840B18
:101E5000950B29893A894B895C892A193B094C09D8
:101E60005D09298B3A8B4B8B5C8B9B01AC0169899B
:101E70007A898B899C890E943610E418F508060936
:101E80001709A80197010E9490102A0D3B1D4C1DB7
:101E90005D1DCA01B901DF91CF911F910F91FF9094
:101EA000EF90DF90CF90BF90AF907F906F905F905A
:101EB0004F900895FC01808191810C946711CF931C
:101EC000DF93EC0188819981009711F00E946711DE
:101ED000198218821D821C821B821A82DF91CF9187
:101EE00008950F931F93CF93DF93EC018B016F5FE6
:101EF0007F4F888199810E94F611009731F0998374
:101F000088831B830A8381E001C080E0DF91CF9149
:101F10001F910F910895CF93DF93EC0188819981F0
:101F2000892B29F08A819B818617970760F4CE015F
:101F30000E94710F882341F08C819D81892B19F4B7
:101F4000E881F981108281E0DF91CF910895EF92CD
:101F5000FF920F931F93CF93DF93EC017B018A01D4
:101F6000BA010E948B0F811104C0CE010E945F0F45
:101F700007C01D830C83B701888199810E94C91213
:101F8000CE01DF91CF911F910F91FF90EF900895B7
:101F9000FC01118210821382128215821482611553
:101FA000710559F0FB0101900020E9F7AF014150A4
:101FB0005109461B570B0C94A70F0895CF93DF933D
:101FC000EC016115710561F0FB0101900020E9F75A
:101FD000AF0141505109461B570B0E94A70F02C089
:101FE0000E945F0FCE01DF91CF910895EF92FF9293
:101FF0000F931F93CF93DF93EC017B010C811D8125
:102000006115710511F480E016C04115510591F07C
:10201000040F151FB8010E948B0F8823A1F328819C
:1020200039818C819D81B701820F931F0E94C91253
:102030001D830C8381E0DF91CF911F910F91FF9061
:10204000EF900895CF93DF9300D0CDB7DEB76983CB
:102050001A8241E050E0BE016F5F7F4F0E94F60F91
:102060000F900F90DF91CF9108950895DB018F932A
:102070009F930E94B510BF91AF91A29F800D911DBB
:10208000A39F900DB29F900D11240895AA1BBB1B16
:1020900051E107C0AA1FBB1FA617B70710F0A61B68
:1020A000B70B881F991F5A95A9F780959095BC0189
:1020B000CD01089597FB072E16F4009407D077FD05
:1020C00009D00E94461007FC05D03EF490958195FA
:1020D0009F4F0895709561957F4F0895A1E21A2E44
:1020E000AA1BBB1BFD010DC0AA1FBB1FEE1FFF1FBC
:1020F000A217B307E407F50720F0A21BB30BE40B0C
:10210000F50B661F771F881F991F1A9469F7609552
:102110007095809590959B01AC01BD01CF0108950C
:10212000052E97FB1EF400940E94A71057FD07D0C0
:102130000E946E1007FC03D04EF40C94A71050952B
:102140004095309521953F4F4F4F5F4F08959095A3
:102150008095709561957F4F8F4F9F4F0895EE0F3B
:10216000FF1F0590F491E02D09940E94C010A59FD7
:10217000900DB49F900DA49F800D911D1124089582
:10218000A29FB001B39FC001A39F700D811D1124B8
:10219000911DB29F700D811D1124911D0895CF9343
:1021A000DF938230910510F482E090E0E091C0036B
:1021B000F091C10320E030E0A0E0B0E0309739F1C9
:1021C0004081518148175907B8F04817590771F4F1
:1021D00082819381109729F013969C938E93129786
:1021E0002CC09093C1038093C00327C021153105F3
:1021F00031F04217530718F0A901DB0101C0EF01CC
:102200009A01BD01DF010280F381E02DD7CF2115B6
:102210003105F9F0281B390B2430310580F48A810F
:102220009B816115710521F0FB019383828304C0BA
:102230009093C1038093C003FE01329644C0FE0117
:10224000E20FF31F81939193225031093983288340
:102250003AC02091BE033091BF03232B41F420915B
:102260000201309103013093BF032093BE032091FC
:102270000001309101012115310541F42DB73EB720
:102280004091040150910501241B350BE091BE03E0
:10229000F091BF03E217F307A0F42E1B3F0B2817A2
:1022A000390778F0AC014E5F5F4F2417350748F0CF
:1022B0004E0F5F1F5093BF034093BE0381939193D2
:1022C00002C0E0E0F0E0CF01DF91CF910895CF931D
:1022D000DF93009709F487C0FC01329713821282C2
:1022E000C091C003D091C103209781F42081318136
:1022F000280F391F8091BE039091BF038217930767
:1023000079F5F093BF03E093BE036DC0DE0120E0DA
:1023100030E0AE17BF0750F412964D915C911397C1
:102320009D014115510509F1DA01F3CFB383A28371
:1023300040815181840F951F8A179B0771F48D91FD
:102340009C911197840F951F02969183808312961A
:102350008D919C911397938382832115310529F4E4
:10236000F093C103E093C0033EC0D9011396FC93E0
:10237000EE9312974D915D91A40FB51FEA17FB07DD
:1023800079F480819181840F951F0296D90111966D
:102390009C938E938281938113969C938E93129734
:1023A000E0E0F0E08A819B81009719F0FE01EC01EA
:1023B000F9CFCE01029628813981820F931F209197
:1023C000BE033091BF032817390769F4309729F409
:1023D0001092C1031092C00302C013821282D093E4
:1023E000BF03C093BE03DF91CF910895A0E0B0E09A
:1023F000ECEFF1E10C94D412EC01CB01209719F42D
:102400000E94CF10B8C0FE01E60FF71F9E012250B8
:102410003109E217F30708F4ACC0D9010D911C9102
:10242000119706171707B8F00530110508F49FC07B
:10243000A801445051094617570708F498C00250A4
:102440001109061B170B019311936D937C93CF0118
:102450000E9467118CC05B01A01AB10A4E01800E68
:10246000911EA091C003B091C103612C712C60E05A
:1024700070E0109709F449C0A815B905C9F5ED90A9
:10248000FC901197670142E0C40ED11CCA14DB0412
:1024900078F147018A189B08640142E0C40ED11C00
:1024A0001296BC9012971396AC91B5E0CB16D1045E
:1024B00040F0B282A38391828082D9018D939C9354
:1024C00009C00E5F1F4F0E0D1F1DF9011183008300
:1024D000EB2DFA2F6115710531F0DB011396FC939A
:1024E000EE93129744C0F093C103E093C0033FC042
:1024F0006D917C9111976616770608F43B01BD013A
:1025000012960D90BC91A02DB4CF6091BE03709136
:10251000BF0368157905E9F468167906D0F440918F
:102520000001509101014115510541F44DB75EB7CD
:102530006091040170910501461B570BE417F507E4
:10254000C0F4F093BF03E093BE03F901918380834D
:102550000EC00E94CF107C01009759F0A801BE0167
:102560000E94C012CE010E946711C70104C0CE01B3
:1025700002C080E090E0CDB7DEB7EEE00C94F01240
:10258000FB01DC0102C001900D9241505040D8F790
:102590000895FB01DC0101900D920020E1F7089500
:1025A0002F923F924F925F926F927F928F929F9263
:1025B000AF92BF92CF92DF92EF92FF920F931F9351
:1025C000CF93DF93CDB7DEB7CA1BDB0B0FB6F89402
:1025D000DEBF0FBECDBF09942A88398848885F8442
:1025E0006E847D848C849B84AA84B984C884DF80B3
:1025F000EE80FD800C811B81AA81B981CE0FD11D97
:102600000FB6F894DEBF0FBECDBFED01089510E008
:10261000C6EDD0E004C0FE010E94B1102296C83D74
:08262000D107C9F7F894FFCFC0
:102628000000C203800001000000110010000F002C
:10263800414243444546474848070009000800907E
:1026480001000001564D4450565F317C315F564DB4
:102658004450560D0A0041726475696E6F205472B9
:10266800616E736D6974746572205665722E302EB2
:102678003100436F6E6E656374696F6E20457374C5
:1026880065626C69736865640009004B657931009F
:102698004B657932004B657933004B657934004BD3
:1026A800657935004B657936004B657937004B65A0
:1026B8007938006765745F636861723A20006172F7
:1026C800645F636F6D6D616E643A20005265636587
:1026D80069766564204B65793A0020416E616C6FBC
:1026E800672030203D200000000000CC05110D3887
:1026F80006AB051E065006564D4450435F005F5614
:102708004D4450430D0A004572726F723A2041746D
:1027180074656D707420746F207365742061207205
:102728006561642D6F6E6C79207661726961626C87
:1027380065206F7220646174612074797065206E01
:102748006F7420737570706F727465640D0A000081
:10275800000000950B110D170B300B220B730B6E3D
:0E276800616E00696E66006F7666002E0000DE
:00000001FF
