:100000000C9454000C947C000C947C000C947C00A8
:100010000C947C000C947C000C947C000C947C0070
:100020000C947C000C947C000C947C000C947C0060
:100030000C947C000C945B040C947C000C947C006D
:100040000C9458050C947C000C94CF070C94010878
:100050000C947C000C947C000C947C000C947C0030
:100060000C947C000C947C00010204081020408059
:1000700001020408102001020408102004040404F2
:100080000404040402020202020203030303030342
:1000900000000000250028002B00000000002400C4
:1000A00027002A00A102310811241FBECFEFD8E09B
:1000B000DEBFCDBF12E0A0E0B1E0E6EBF4E102C0AC
:1000C00005900D92A434B107D9F724E0A4E4B2E07E
:1000D00001C01D92A132B207E1F710E0C8EAD0E0FA
:1000E00004C02297FE010E94460AC43AD107C9F70C
:1000F0000E9475080C94590A0C9400006AE284E886
:1001000093E00E94C4084AE050E06AE070E084E8AE
:1001100093E00E9484096CE784E893E00E94C4089D
:100120004AE050E061E070E084E893E00E948409D6
:1001300067E071E084E893E00C94C20869E071E044
:1001400084E893E00C94C2086AE171E084E893E0EB
:100150000C94C20868E271E084E893E00C94C20851
:1001600069E371E084E893E00C94C2086AE471E00A
:1001700084E893E00C94C2086BE571E084E893E0B6
:100180000C94C2086CE671E084E893E00C94C20819
:100190006DE771E084E893E00C94C2086EE871E0CA
:1001A00084E893E00C94C208AF92BF92CF92DF92A2
:1001B000EF92FF920F931F9340ED57E060E070E0E5
:1001C00084E493E00E94BF0420E835E240E050E080
:1001D00064E873E084E493E00E94D20484E493E052
:1001E0000E94BC046FE971E08091750390917603E1
:1001F0000E94C2086AE070E080E090E00E94D105B1
:1002000041E060E084E493E00E943D0526E040E8A0
:1002100055E260E070E084E893E00E946D0761EBD6
:1002200071E084E893E00E94CF08A090AC02B09007
:10023000AD02C090AE02D090AF02E090B002F0905C
:10024000B1020091B2021091B3022091B402309138
:10025000B5024091B6025091B7026091B80289EBA5
:1002600092E00E944703A0909F02B090A002C0902D
:10027000A102D090A202E090A302F090A40200910B
:10028000A5021091A6022091A7023091A8024091E8
:10029000A9025091AA026091AB0289EB92E00E9400
:1002A0004703A0909202B0909302C0909402D09025
:1002B0009502E0909602F0909702009198021091BA
:1002C000990220919A0230919B0240919C02509198
:1002D0009D0260919E0289EB92E00E944703A090EC
:1002E0008502B0908602C0908702D0908802E0908C
:1002F0008902F0908A0200918B0210918C02209169
:100300008D0230918E0240918F0250919002609147
:10031000910289EB92E00E944703A0907802B0908E
:100320007902C0907A02D0907B02E0907C02F0903B
:100330007D0200917E0210917F0220918002309117
:10034000810240918202509183026091840289EB84
:1003500092E00E944703A0906B02B0906C02C090A4
:100360006D02D0906E02E0906F02F09070020091EA
:1003700071021091720220917302309174024091C7
:100380007502509176026091770289EB92E00E94AB
:100390004703A0905E02B0905F02C0906002D090D0
:1003A0006102E0906202F090630200916402109199
:1003B0006502209166023091670240916802509177
:1003C000690260916A0289EB92E00E944703A09063
:1003D0005102B0905202C0905302D0905402E0906B
:1003E0005502F09056020091570210915802209148
:1003F000590230915A0240915B0250915C02609127
:100400005D0289EB92E00E944703A0904402B09005
:100410004502C0904602D0904702E0904802F0901A
:10042000490200914A0210914B0220914C023091F6
:100430004D0240914E0250914F026091500289EB63
:1004400092E00E944703529A539A549A559A569AA8
:10045000579A209A219A5A9A84EF91E00E948A042E
:100460005A985B9A84EF91E00E948A045B985C9AA8
:1004700084EF91E00E948A045C985D9A84EF91E099
:100480000E948A045D985E9A84EF91E00E948A043B
:100490005E985F9A84EF91E00E948A045F98289AA0
:1004A00084EF91E00E948A042898299A84EF91E0D1
:1004B0000E948A0429981F910F91FF90EF90DF907E
:1004C000CF90BF90AF900895AF92BF92CF92DF923E
:1004D000EF92FF920F931F9389EB92E00E948E039D
:1004E000809104010E94340690933F0380933E0361
:1004F000BC01882777FD8095982F1F921F921F922D
:1005000023EB2F93A12CB12C6501EE24EA9413E088
:10051000F12E00E010E020E030E0A9010E94A009E7
:1005200070933F0360933E030F900F900F900F90D6
:100530001F910F91FF90EF90DF90CF90BF90AF9001
:100540000895EF92FF920F931F930AE023E030E0AB
:100550004EE16EE089EB92E00E943B033AEFE32E1E
:10056000F12C08EE13E020E030E04EE750E069EFB8
:1005700073E08CEA92E00E94220324EA30E04EE924
:1005800050E06BE171E08FE992E00E94220320E0ED
:1005900030E04AEA50E062EF70E082E992E00E94C7
:1005A000220320E030E040EB50E069EC70E085E8A9
:1005B00092E00E94220320E030E046EB50E06BEA3C
:1005C00070E088E792E00E94220320E030E04CEBEC
:1005D00050E06DE870E08BE692E00E94220320E09C
:1005E00030E042EC50E067E770E08EE592E00E9478
:1005F000220320E030E048EC50E06BE570E081E55C
:1006000092E00E94220320E030E04EEC50E066E4ED
:1006100070E084E492E00E9422031F910F91FF900A
:10062000EF900895DC011B96ED91FC911C9730979B
:1006300039F4DC011996ED91FC911A97309709F085
:1006400009940895EF92FF920F931F93FC01C90143
:100650007183608320E030E0028313832483358339
:10066000F782E68252874187948783871F910F9193
:10067000FF90EF9008950F93FC01862F64873583D8
:10068000248312860387642F0F910C945106AF9236
:10069000BF92CF92DF92EF92FF920F931F93CF936F
:1006A000DF93CDB7DEB72D970FB6F894DEBF0FBE40
:1006B000CDBFDC01A982BA82CB82DC82ED82FE82D0
:1006C0000F83188729873A874B875C876D871D962C
:1006D0008C911D97893088F491E0980F1D969C931A
:1006E0001D979DE0989FA00DB11D11241E96FE013F
:1006F000319601900D929A95E1F72D960FB6F894E8
:10070000DEBF0FBECDBFDF91CF911F910F91FF9044
:10071000EF90DF90CF90BF90AF9008954F925F928F
:100720006F927F928F929F92AF92BF92CF92DF9201
:10073000EF92FF920F931F93CF93DF93EC010E94F0
:10074000A2050E811F8128853985601B710B820BE4
:10075000930B693771058105910508F49BC00E94D0
:10076000A2056E837F83888799878C850E943406D3
:10077000AD85FE01A12CB12CAA1608F05AC0468501
:1007800057852B8530E0BA01621B730B86179707DC
:1007900008F449C0240F351F2817390708F443C04F
:1007A000DE01AD57BF4F0D911C9111978DE08A9DD1
:1007B00070018B9DF00C1124F7013E96EC0FFD1F8C
:1007C0000E171F07A9F02A852F5F2A8730E08C813A
:1007D0009D812817390708F45DC0ED93FC931A86B4
:1007E0000184F285E02D309709F44EC009954CC084
:1007F000EC0EFD1EF7018689882301F10E94A205F7
:10080000488059806A807B80641975098609970938
:10081000F701C488D588E12CF12CC616D706E80666
:10082000F90678F10BC0168A2FEFA21AB20A3D968C
:10083000A3CFCD57DF4F198218822CC08DE08A9D3F
:1008400070018B9DF00C1124EC0EFD1EF7018689C2
:10085000811120C00E94A20588809980AA80BB8057
:10086000681979098A099B09F70180889188A2880B
:10087000B38886169706A806B90660F481E0F701EA
:10088000868BC8010E9412030E94A20568837983A7
:100890008A839B83DF91CF911F910F91FF90EF90FF
:1008A000DF90CF90BF90AF909F908F907F906F9090
:1008B0005F904F9008951F920F920FB60F921124E0
:1008C0002F933F934F935F936F937F938F939F9358
:1008D000AF93BF93EF93FF938091400390914103B7
:1008E0009093850080938400E0914203F09143034C
:1008F0000995FF91EF91BF91AF919F918F917F915A
:100900006F915F914F913F912F910F900FBE0F907C
:100910001F9018952CE93FE0009729F0F9013197D5
:10092000F1F70197F9CF08950F931F93CF93DF93BA
:10093000EC01662359F00E94A20569837A838B83B8
:100940009C83DF91CF911F910F9108950E94A20582
:1009500009811A812B813C81601B710B820B930BE7
:10096000623371058105910530F763E070E080E046
:1009700090E00E94D105EACF60E00C949404FC0161
:1009800013AA14AA15AA16AA11821282138214821B
:10099000411551056105710521F0CB01BA010C9497
:1009A000D1050895FB01BA01A901DC01D296FC939F
:1009B000EE93D19726E0CF010C946D071F93CF9350
:1009C000DF93EC01162F6DEC71E089A99AA90E94C2
:1009D000C2084AE050E0612F89A99AA90E949909AA
:1009E00064ED71E089A99AA90E94C20862E370E0EF
:1009F00080E090E0DF91CF911F910C94D1051F937F
:100A0000CF93DF93EC01162F8D81882389F189A97B
:100A10009AA9DC01ED91FC910480F581E02D099506
:100A2000892BA9F307C02637310519F1283531057F
:100A300009F41D8289A99AA9DC01ED91FC91048039
:100A4000F581E02D09951816190694F489A99AA93B
:100A5000DC01ED91FC910680F781E02D09959C0168
:100A6000332723363105F9F6612FCE010E94DE04CB
:100A700083E6DF91CF911F9108950F931F93CF933A
:100A8000DF931F92CDB7DEB78C01662349F081E07A
:100A9000F801858360E0C80149830E94FF04498111
:100AA000F80145830F90DF91CF911F910F91089529
:100AB0001F920F920FB60F9211242F933F938F9393
:100AC0009F93AF93BF9380917C0390917D03A091FE
:100AD0007E03B0917F0330917B0323E0230F2D37FA
:100AE00020F40196A11DB11D05C026E8230F029632
:100AF000A11DB11D20937B0380937C0390937D0304
:100B0000A0937E03B0937F03809180039091810333
:100B1000A0918203B09183030196A11DB11D809322
:100B2000800390938103A0938203B0938303BF91CA
:100B3000AF919F918F913F912F910F900FBE0F908A
:100B40001F9018952FB7F89460917C0370917D03E6
:100B500080917E0390917F032FBF08953FB7F89453
:100B60008091800390918103A0918203B0918303CF
:100B700026B5A89B05C02F3F19F00196A11DB11DF8
:100B80003FBF6627782F892F9A2F620F711D811D15
:100B9000911D42E0660F771F881F991F4A95D1F774
:100BA0000895CF92DF92EF92FF92CF93DF936B0184
:100BB0007C010E94AE05EB01C114D104E104F104F3
:100BC00089F00E94E7090E94AE056C1B7D0B683E10
:100BD000734090F381E0C81AD108E108F108C851C8
:100BE000DC4FEACFDF91CF91FF90EF90DF90CF9075
:100BF0000895789484B5826084BD84B5816084BD95
:100C000085B5826085BD85B5816085BDEEE6F0E085
:100C1000808181608083E1E8F0E0108280818260E1
:100C20008083808181608083E0E8F0E08081816062
:100C30008083E1EBF0E0808184608083E0EBF0E092
:100C4000808181608083EAE7F0E080818460808336
:100C500080818260808380818160808380818068E0
:100C600080831092C10008958E3008F08E508770F6
:100C70002091060190E4299F90011124822B8093FA
:100C80007C0080917A00806480937A0080917A0061
:100C900086FDFCCF809178002091790090E0922B26
:100CA0000895CF93DF9390E0FC01E859FF4F249122
:100CB000FC01E458FF4F8491882349F190E0880FAC
:100CC000991FFC01E656FF4FA591B49180579F4FA5
:100CD000FC01C591D4919FB7611108C0F8948C9123
:100CE000209582238C93888182230AC0623051F43C
:100CF000F8948C91322F309583238C938881822BAA
:100D0000888304C0F8948C91822B8C939FBFDF91D1
:100D1000CF910895FC01818D228D90E0805C9F4FE2
:100D2000821B91098F7399270895FC01918D828D03
:100D3000981731F0828DE80FF11D858D90E00895B0
:100D40008FEF9FEF0895FC01918D828D981761F0D0
:100D5000828DDF01A80FB11D5D968C91928D9F5FF2
:100D60009F73928F90E008958FEF9FEF089587E231
:100D700098E0892B49F080E090E0892B29F00E94CF
:100D8000270881110C9400000895FC01848DDF0177
:100D9000A80FB11DA35ABF4F2C91848D90E00196EE
:100DA0008F739927848FA689B7892C93A089B189DD
:100DB0008C9180648C93938D848D981306C00288E7
:100DC000F389E02D80818F7D80830895CF93DF9319
:100DD000EC01888D8823C9F0EA89FB89808185FD33
:100DE00005C0A889B9898C9186FD0FC00FB607FC94
:100DF000F5CF808185FFF2CFA889B9898C9185FFD5
:100E0000EDCFCE010E94C506E7CFDF91CF910895C7
:100E1000CF92DF92FF920F931F93CF93DF931F9296
:100E2000CDB7DEB76C0181E0D60158968C93589708
:100E30005B969C915B975C968C915C97981307C02E
:100E40005096ED91FC915197808185FD2EC0F60161
:100E5000038D10E00F5F1F4F0F731127F02EF60167
:100E6000848DF81211C00FB607FCF9CFD601509649
:100E7000ED91FC915197808185FFF1CFC601698387
:100E80000E94C5066981EBCF838DE80FF11DE35AFF
:100E9000FF4F6083D6015B960C935B975296ED9162
:100EA000FC915397808180620CC0D6015696ED91DB
:100EB000FC91579760835096ED91FC9151978081FA
:100EC0008064808381E090E00F90DF91CF911F914B
:100ED0000F91FF90DF90CF900895BF92CF92DF9255
:100EE000EF92FF92CF93DF93EC016A017B01B22E68
:100EF000E889F98982E08083411581EE5807610510
:100F00007105A1F060E079E08DE390E0A701960122
:100F10000E94F80921503109410951095695479518
:100F200037952795211580E1380798F0E889F989E8
:100F3000108260E874E88EE190E0A70196010E94BB
:100F4000F8092150310941095109569547953795BE
:100F50002795EC85FD853083EE85FF852083188EEF
:100F6000EC89FD89B082EA89FB8980818061808378
:100F7000EA89FB89808188608083EA89FB89808196
:100F800080688083EA89FB8980818F7D8083DF91FF
:100F9000CF91FF90EF90DF90CF90BF9008951F9278
:100FA0000F920FB60F9211242F938F939F93EF936D
:100FB000FF93E0919403F09195038081E0919A036F
:100FC000F0919B0382FD12C0908180919D038F5F01
:100FD0008F7320919E03821751F0E0919D03F0E002
:100FE000EC57FC4F958F80939D0301C08081FF914A
:100FF000EF919F918F912F910F900FBE0F901F90A7
:1010000018951F920F920FB60F9211242F933F93B2
:101010004F935F936F937F938F939F93AF93BF9300
:10102000EF93FF9384E893E00E94C506FF91EF9150
:10103000BF91AF919F918F917F916F915F914F91F0
:101040003F912F910F900FBE0F901F90189584E83D
:1010500093E00E948A0621E0892B09F420E0822F88
:101060000895109287031092860388EE93E0A0E023
:10107000B0E08093880390938903A0938A03B09390
:101080008B0389E292E0909385038093840385EC3F
:1010900090E0909391038093900384EC90E0909380
:1010A00093038093920380EC90E090939503809358
:1010B000940381EC90E0909397038093960382ECE5
:1010C00090E0909399038093980386EC90E090933E
:1010D0009B0380939A0310929D0310929E0310929B
:1010E0009F031092A003089508950E94F9050E949D
:1010F00074080E94D400C7EBD6E00E9464022097D7
:10110000E1F30E94B706F9CFCF92DF92EF92FF9200
:101110000F931F93CF93DF937C016A01EB0100E0F3
:1011200010E00C151D0571F06991D701ED91FC914E
:101130000190F081E02DC7010995892B19F00F5F0F
:101140001F4FEFCFC801DF91CF911F910F91FF90FB
:10115000EF90DF90CF9008956115710581F0DB016C
:101160000D900020E9F7AD0141505109461B570B86
:10117000DC01ED91FC910280F381E02D099480E087
:1011800090E008950C94AC08DC01ED91FC91019085
:10119000F081E02D09946AED71E00C94AC080F9396
:1011A0001F93CF93DF93EC010E94AC088C01CE011A
:1011B0000E94CB08800F911FDF91CF911F910F915B
:1011C00008958F929F92AF92BF92CF92DF92EF924B
:1011D000FF920F931F93CF93DF93CDB7DEB7A19705
:1011E0000FB6F894DEBF0FBECDBF7C01C42EE52F35
:1011F000CB01D22E19A221E02D1510F02AE0D22E1B
:101200008E010F5D1F4F8D2C912CA12CB12C6C2DBC
:101210007E2FA50194010E94F8098C2DD29E801981
:101220001124015011098A3014F4805D01C0895CD9
:10123000F8018083211531054105510521F0C22EA9
:10124000E32FCA01E4CFB801C7010E94AC08A19600
:101250000FB6F894DEBF0FBECDBFDF91CF911F91C7
:101260000F91FF90EF90DF90CF90BF90AF909F9045
:101270008F900895CF92DF92EF92FF920F931F937A
:10128000CF93DF93EC016A017B012115310579F4DD
:10129000E881F9810190F081E02D642FDF91CF91F9
:1012A0001F910F91FF90EF90DF90CF9009942A301B
:1012B0003105E9F477FF1AC06DE20E94C4088C0181
:1012C00044275527BA014C195D096E097F092AE0A8
:1012D000CE010E94E108800F911FDF91CF911F91F5
:1012E0000F91FF90EF90DF90CF9008952AE0B70123
:1012F000A601CE01DF91CF911F910F91FF90EF904A
:10130000DF90CF900C94E1089A01AB01662757FD5E
:101310006095762F0C943A092115310541F4DC01D2
:10132000ED91FC910190F081E02D642F09940C94D3
:10133000E1089A01462F50E060E070E00C948C09BF
:101340004F925F926F927F92AF92BF92CF92DF9255
:10135000EF92FF920F931F93CF93DF93CDB7DEB73A
:1013600029013A01621B730B840B950B29893A8979
:101370004B895C892A193B094C095D09298B3A8BF9
:101380004B8B5C8B9B01AC0169897A898B899C8929
:101390000E94E809E418F50806091709A801970151
:1013A0000E941A0A2A0D3B1D4C1D5D1DCA01B90180
:1013B000DF91CF911F910F91FF90EF90DF90CF9031
:1013C000BF90AF907F906F905F904F900895089579
:1013D000DB018F939F930E94390ABF91AF91A29F27
:1013E000800D911DA39F900DB29F900D1124089523
:1013F000A1E21A2EAA1BBB1BFD010DC0AA1FBB1F19
:10140000EE1FFF1FA217B307E407F50720F0A21B8A
:10141000B30BE40BF50B661F771F881F991F1A94F7
:1014200069F760957095809590959B01AC01BD0121
:10143000CF010895052E97FB1EF400940E94310AF7
:1014400057FD07D00E94F80907FC03D04EF40C9416
:10145000310A50954095309521953F4F4F4F5F4F42
:10146000089590958095709561957F4F8F4F9F4F10
:1014700008950E944A0AA59F900DB49F900DA49FC5
:10148000800D911D11240895EE0FFF1F0590F4911A
:10149000E02D0994A29FB001B39FC001A39F700DDE
:1014A000811D1124911DB29F700D811D1124911D6C
:0614B0000895F894FFCF3F
:1014B600010000000F00010900627574746F6E2050
:1014C6003220636C69636B656400627574746F6E59
:1014D60020322068656C6400627574746F6E203308
:1014E60020636C69636B656400627574746F6E204B
:1014F6003420636C69636B656400627574746F6E27
:10150600203520636C69636B656400627574746F63
:101516006E203620636C69636B6564006275747453
:101526006F6E203720636C69636B65640062757447
:10153600746F6E203820636C69636B656400627536
:1015460074746F6E203920636C69636B6564005632
:101556004D4450565F317C315F564D4450560D0A0E
:101566000041726475696E6F205472616E736D69A5
:1015760074746572205665722E302E3100564D44B5
:1015860050435F005F564D4450430D0A004572724A
:101596006F723A20417474656D707420746F207395
:1015A6006574206120726561642D6F6E6C7920769A
:1015B60061726961626C65206F722064617461207A
:1015C60074797065206E6F7420737570706F7274A5
:1015D60065640D0A0000000000080784088A06A357
:1015E600069506E6066E616E00696E66006F7666A3
:0415F600002E0000C3
:00000001FF
