:100000000C946C000C9494000C9494000C94940048
:100010000C9494000C9494000C9494000C94940010
:100020000C9494000C9494000C9494000C94940000
:100030000C9494000C9450030C9494000C94940031
:100040000C944D040C9494000C94B6070C94E8079F
:100050000C9494000C9494000C9494000C949400D0
:100060000C9494000C9494009F01EB0117021A0267
:100070001D022002230226020000000800020100E7
:100080000003040700000000000000000102040853
:1000900010204080010204081020010204081020F2
:1000A000040404040404040402020202020203031E
:1000B00003030303000000002300260029000000C2
:1000C0000000250028002B0000000000240027006D
:1000D0002A0050011808560111241FBECFEFD8E0A6
:1000E000DEBFCDBF12E0A0E0B1E0ECE8FCE102C071
:1000F00005900D92AC31B107D9F723E0ACE1B2E045
:1001000001C01D92A131B207E1F710E0C6EDD0E0C9
:1001100004C02297FE010E94E30BC23DD107C9F73C
:100120000E945C080C94390E0C94000040ED57E0DE
:1001300060E070E080E392E00E94B40320E835E2E2
:1001400040E050E060E772E080E392E00E94C70385
:1001500080E392E00E94B10364E271E08091610269
:10016000909162020E94A9086AE070E080E090E04D
:100170000E94C60441E060E080E392E00E94320405
:1001800026E040E855E260E070E080E792E00E94FF
:10019000540766E371E080E792E00E94B60861E0F0
:1001A00080911D010E94D90561E0809119010E9492
:1001B000D90560E080911B010E94D905529A539A9B
:1001C000549A559A569A579A209A219A5A9A84EF95
:1001D00091E00E947F035A985B9A84EF91E00E941D
:1001E0007F035B985C9A84EF91E00E947F035C98A8
:1001F0005D9A84EF91E00E947F035D985E9A84EFA0
:1002000091E00E947F035E985F9A84EF91E00E94E4
:100210007F035F98289A84EF91E00E947F032898DB
:10022000299A84EF91E00E947F0329980895DF9234
:10023000EF92FF920F931F93CF93DF93D82EF62E5A
:1002400061E08F2D0E94D90560E08D2D0E94D905B7
:10025000E12CC7E0D0E001E010E060E08F2D0E94CB
:10026000120680E090E00E94EE048D2D0E94480668
:10027000892B39F098010C2E01C0220F0A94EAF75D
:10028000E22A61E08F2D0E941206219730F78E2D11
:10029000DF91CF911F910F91FF90EF90DF90089524
:1002A00063E571E08CE192E00C94220B8CE192E02A
:1002B0000C94B40AAF92BF92CF92DF92EF92FF926A
:1002C0000F931F93CF93DF9361E080911D010E94F4
:1002D000120684E190E00E94EE0460E080911D012E
:1002E0000E9412066091190170911A0180911B0100
:1002F00090911C010E94170180931801C0E0D0E08A
:100300008091180190E00C2E02C0959587950A9473
:10031000E2F780FFA1C0FE01E05FFE4F80819927D8
:1003200087FD9095A92FB92FFC01E154F109E83020
:10033000F10508F091C0EC5CFF4F0C94E10B0E94BA
:100340009704C0902802D0902902E0902A02F090F1
:100350002B026C197D098E099F09C0901F01D09056
:100360002001E0902101F0902201C616D706E80690
:10037000F90608F071C06AE280E792E00E94AB08DB
:100380004AE050E06AE070E080E792E00E947D0978
:100390006CE780E792E00E94AB084AE050E061E041
:1003A00070E080E792E00E947D0963E280E792E0DE
:1003B0000E94AB0862E571E080E792E00E94A90824
:1003C0000E949704609328027093290280932A0266
:1003D00090932B0241C06AE280E792E00E94AB0852
:1003E0004AE050E06AE070E080E792E00E947D0918
:1003F0006CE780E792E00E94AB084AE050E062E0E0
:1004000070E080E792E00E947D0963E280E792E07D
:100410000E94AB0862E571E080E792E00E94A908C3
:100420006CE271E080E090E00E94C60415C064E5D3
:1004300071E00EC069E571E00BC06EE571E008C0C7
:1004400063E671E005C068E671E002C06DE671E048
:1004500080E792E00E94B6082196C830D10509F0E5
:100460004FCF80910E010E94340590932702809314
:100470002602BC01882777FD8095982F1F921F9236
:100480001F92C3EBCF93A12CB12C6501EE24EA940B
:1004900013E0F12E00E010E020E030E0A9010E941E
:1004A0006D0A709327026093260280910C010E94CE
:1004B00034059093250280932402BC01882777FDA0
:1004C0008095982F1F921F921F92CF9320E030E0CB
:1004D000A9010E946D0A7093250260932402809105
:1004E0000A010E9434059093230280932202BC01EA
:1004F000882777FD8095982F1F921F921F92CF9388
:1005000020E030E0A9010E946D0A709323026093FD
:10051000220280E792E00E9471062DB73EB7245F69
:100520003F4F0FB6F8943EBF0FBE2DBF18161906E9
:100530000CF0ABC080E792E00E948A06C82F62E709
:1005400071E080E792E00E94B6086C2F80E792E0AD
:100550000E94C808CA3209F098C080E792E00E9461
:100560006A0A6B017C01EB016DE771E080E792E0C4
:100570000E94B6084AE050E0B60180E792E00E948F
:10058000850980E792E00E946A0A162F80E792E0D0
:100590000E946A0A6B017C01CC30D10549F563E504
:1005A00071E08CE192E00E94380B80E792E00E94BB
:1005B0007106892B09F459C080E792E00E948A06EF
:1005C000C82F65E070E080E090E00E94C604C3326E
:1005D00009F44BC0CC3749F36C2F8CE192E00E94B8
:1005E0007C0B65E070E080E090E00E94C604DDCF07
:1005F000CA30D10571F46BE871E080E792E00E94A7
:10060000B6084AE050E0B60180E792E00E94850912
:100610002CC0CB30D10569F4812FDF91CF911F9190
:100620000F91FF90EF90DF90CF90BF90AF900C9420
:1006300051052D97D1F469E971E080E792E00E94BD
:10064000A9088EE00E9434054AE050E0BC0180E732
:1006500092E0DF91CF911F910F91FF90EF90DF908B
:10066000CF90BF90AF900C9485096CE271E080E070
:1006700090E0DF91CF911F910F91FF90EF90DF906D
:10068000CF90BF90AF900C94C604DF91CF911F9193
:100690000F91FF90EF90DF90CF90BF90AF900895B3
:1006A0001F920F920FB60F9211242F933F934F93E7
:1006B0005F936F937F938F939F93AF93BF93EF93CA
:1006C000FF9380912C0290912D029093850080934E
:1006D0008400E0912E02F0912F020995FF91EF9195
:1006E000BF91AF919F918F917F916F915F914F914A
:1006F0003F912F910F900FBE0F901F9018952CE9EE
:100700003FE0009729F0F9013197F1F70197F9CF10
:1007100008950F931F93CF93DF93EC01662359F055
:100720000E94970469837A838B839C83DF91CF91A6
:100730001F910F9108950E94970409811A812B81BE
:100740003C81601B710B820B930B62337105810539
:10075000910530F763E070E080E090E00E94C6040D
:10076000EACF60E00C948903FC0113AA14AA15AA2D
:1007700016AA118212821382148241155105610555
:10078000710521F0CB01BA010C94C6040895FB0158
:10079000BA01A901DC01D296FC93EE93D19726E031
:1007A000CF010C9454071F93CF93DF93EC01162FC6
:1007B00066EA71E089A99AA90E94A9084AE050E076
:1007C000612F89A99AA90E94AA096DEA71E089A9F5
:1007D0009AA90E94A90862E370E080E090E0DF91AE
:1007E000CF911F910C94C6041F93CF93DF93EC011C
:1007F000162F8D81882389F189A99AA9DC01ED91B1
:10080000FC910480F581E02D0995892BA9F307C09F
:100810002637310519F12835310509F41D8289A9DA
:100820009AA9DC01ED91FC910480F581E02D0995F8
:100830001816190694F489A99AA9DC01ED91FC9186
:100840000680F781E02D09959C0133272336310579
:10085000F9F6612FCE010E94D30383E6DF91CF9199
:100860001F9108950F931F93CF93DF931F92CDB7DE
:10087000DEB78C01662349F081E0F801858360E0F2
:10088000C80149830E94F4034981F80145830F9010
:10089000DF91CF911F910F9108951F920F920FB684
:1008A0000F9211242F933F938F939F93AF93BF93F6
:1008B0008091680290916902A0916A02B0916B02E6
:1008C0003091670223E0230F2D3720F40196A11DFC
:1008D000B11D05C026E8230F0296A11DB11D20936E
:1008E00067028093680290936902A0936A02B093B2
:1008F0006B0280916C0290916D02A0916E02B0919A
:100900006F020196A11DB11D80936C0290936D0240
:10091000A0936E02B0936F02BF91AF919F918F91A0
:100920003F912F910F900FBE0F901F9018952FB7EA
:10093000F894609168027091690280916A029091C6
:100940006B022FBF08953FB7F89480916C0290918D
:100950006D02A0916E02B0916F0226B5A89B05C0F2
:100960002F3F19F00196A11DB11D3FBF6627782FBB
:10097000892F9A2F620F711D811D911D42E0660F14
:10098000771F881F991F4A95D1F70895CF92DF925C
:10099000EF92FF92CF93DF936B017C010E94A3043F
:1009A000EB01C114D104E104F10489F00E948F0B22
:1009B0000E94A3046C1B7D0B683E734090F381E0A2
:1009C000C81AD108E108F108C851DC4FEACFDF911D
:1009D000CF91FF90EF90DF90CF90089582309105F6
:1009E00038F0880F991F880F991F05970197F1F725
:1009F0000895789484B5826084BD84B5816084BD97
:100A000085B5826085BD85B5816085BDEEE6F0E087
:100A1000808181608083E1E8F0E0108280818260E3
:100A20008083808181608083E0E8F0E08081816064
:100A30008083E1EBF0E0808184608083E0EBF0E094
:100A4000808181608083EAE7F0E080818460808338
:100A500080818260808380818160808380818068E2
:100A600080831092C10008958E3008F08E508770F8
:100A70002091230190E4299F90011124822B8093DF
:100A80007C0080917A00806480937A0080917A0063
:100A900086FDFCCF809178002091790090E0922B28
:100AA00008951F93CF93DF93182FEB0161E00E940D
:100AB000D905209711F460E004C0CF3FD10539F487
:100AC00061E0812FDF91CF911F910C941206E12FED
:100AD000F0E0E858FF4FE491E330F9F048F4E130FA
:100AE000B9F0E230A1F584B5806284BDC8BD34C0E0
:100AF000E730E9F0E83019F1E43049F58091800001
:100B0000806280938000D0938B00C0938A0024C0C1
:100B100084B5806884BDC7BD1FC080918000806897
:100B200080938000D0938900C093880015C0809185
:100B3000B00080688093B000C093B3000DC0809176
:100B4000B00080628093B000C093B40005C0C0388C
:100B5000D1050CF0B5CFAFCFDF91CF911F910895A4
:100B6000833081F028F4813099F08230A1F008952B
:100B70008730A9F08830B9F08430D1F480918000BA
:100B80008F7D03C0809180008F77809380000895CF
:100B900084B58F7702C084B58F7D84BD0895809120
:100BA000B0008F7703C08091B0008F7D8093B0003C
:100BB0000895CF93DF9390E0FC01E457FF4F249119
:100BC000FC01E056FF4F8491882349F190E0880FA3
:100BD000991FFC01E853FF4FA591B49182549F4F98
:100BE000FC01C591D4919FB7611108C0F8948C9114
:100BF000209582238C93888182230AC0623051F42D
:100C0000F8948C91322F309583238C938881822B9A
:100C1000888304C0F8948C91822B8C939FBFDF91C2
:100C2000CF9108950F931F93CF93DF931F92CDB76A
:100C3000DEB7282F30E0F901E858FF4F8491F90121
:100C4000E457FF4F1491F901E056FF4F0491002340
:100C5000C9F0882321F069830E94B0056981E02FE3
:100C6000F0E0EE0FFF1FE254FF4FA591B4919FB744
:100C7000F8948C91611103C01095812301C0812BE0
:100C80008C939FBF0F90DF91CF911F910F9108958B
:100C9000CF93DF93282F30E0F901E858FF4F84917C
:100CA000F901E457FF4FD491F901E056FF4FC49189
:100CB000CC2391F081110E94B005EC2FF0E0EE0FF3
:100CC000FF1FEC54FF4FA591B4912C912D2381E08F
:100CD00090E021F480E002C080E090E0DF91CF91CD
:100CE0000895FC01818D228D90E0805C9F4F821BD6
:100CF00091098F7399270895FC01918D828D981722
:100D000031F0828DE80FF11D858D90E008958FEF11
:100D10009FEF0895FC01918D828D981761F0828D6F
:100D2000DF01A80FB11D5D968C91928D9F5F9F731F
:100D3000928F90E008958FEF9FEF08958EE098E0F6
:100D4000892B49F080E090E0892B29F00E940E0861
:100D500081110C9400000895FC01848DDF01A80F1F
:100D6000B11DA35ABF4F2C91848D90E001968F73D3
:100D70009927848FA689B7892C93A089B1898C91F2
:100D800080648C93938D848D981306C00288F389B8
:100D9000E02D80818F7D80830895CF93DF93EC01D8
:100DA000888D8823C9F0EA89FB89808185FD05C08B
:100DB000A889B9898C9186FD0FC00FB607FCF5CFC5
:100DC000808185FFF2CFA889B9898C9185FFEDCF0D
:100DD000CE010E94AC06E7CFDF91CF910895CF926C
:100DE000DF92FF920F931F93CF93DF931F92CDB7A4
:100DF000DEB76C0181E0D60158968C9358975B96CC
:100E00009C915B975C968C915C97981307C0509669
:100E1000ED91FC915197808185FD2EC0F601038DE7
:100E200010E00F5F1F4F0F731127F02EF601848D16
:100E3000F81211C00FB607FCF9CFD6015096ED910C
:100E4000FC915197808185FFF1CFC60169830E9493
:100E5000AC066981EBCF838DE80FF11DE35AFF4F9C
:100E60006083D6015B960C935B975296ED91FC9153
:100E70005397808180620CC0D6015696ED91FC910B
:100E8000579760835096ED91FC91519780818064D3
:100E9000808381E090E00F90DF91CF911F910F91BF
:100EA000FF90DF90CF900895BF92CF92DF92EF92A4
:100EB000FF92CF93DF93EC016A017B01B22EE889A8
:100EC000F98982E08083411581EE5807610571053B
:100ED000A1F060E079E08DE390E0A70196010E9427
:100EE000A00B215031094109510956954795379575
:100EF0002795211580E1380798F0E889F989108253
:100F000060E874E88EE190E0A70196010E94A00BD2
:100F10002150310941095109569547953795279533
:100F2000EC85FD853083EE85FF852083188EEC8966
:100F3000FD89B082EA89FB89808180618083EA89AA
:100F4000FB89808188608083EA89FB898081806851
:100F50008083EA89FB8980818F7D8083DF91CF91B7
:100F6000FF90EF90DF90CF90BF9008951F920F9267
:100F70000FB60F9211242F938F939F93EF93FF93AC
:100F8000E0918002F09181028081E0918602F091EF
:100F9000870282FD12C09081809189028F5F8F73DA
:100FA00020918A02821751F0E0918902F0E0E05925
:100FB000FD4F958F8093890201C08081FF91EF9151
:100FC0009F918F912F910F900FBE0F901F901895AA
:100FD0001F920F920FB60F9211242F933F934F93AE
:100FE0005F936F937F938F939F93AF93BF93EF9391
:100FF000FF9380E792E00E94AC06FF91EF91BF91D2
:10100000AF919F918F917F916F915F914F913F91A0
:101010002F910F900FBE0F901F90189580E792E0D0
:101020000E94710621E0892B09F420E0822F0895A7
:10103000109273021092720288EE93E0A0E0B0E08A
:101040008093740290937502A0937602B093770216
:1010500082E092E0909371028093700285EC90E0C0
:1010600090937D0280937C0284EC90E090937F02C9
:1010700080937E0280EC90E09093810280938002C6
:1010800081EC90E0909383028093820282EC90E066
:10109000909385028093840286EC90E0909387027F
:1010A000809386021092890210928A0210928B021B
:1010B00010928C02089508950E94F9040E945B0822
:1010C0000E949600CEE9D6E00E945A012097E1F3F3
:1010D0000E949E06F9CFCF92DF92EF92FF920F937C
:1010E0001F93CF93DF937C016A01EB0100E010E0D6
:1010F0000C151D0571F06991D701ED91FC910190DE
:10110000F081E02DC7010995892B19F00F5F1F4F62
:10111000EFCFC801DF91CF911F910F91FF90EF901A
:10112000DF90CF9008956115710581F0DB010D907E
:101130000020E9F7AD0141505109461B570BDC0176
:10114000ED91FC910280F381E02D099480E090E024
:1011500008950C949308DC01ED91FC910190F081CD
:10116000E02D099463EB71E00C9493080F931F93A7
:10117000CF93DF93EC010E9493088C01CE010E9473
:10118000B208800F911FDF91CF911F910F910895A9
:101190000F931F93CF93DF93EC010E94AB088C0158
:1011A000CE010E94B208800F911FDF91CF911F9155
:1011B0000F9108958F929F92AF92BF92CF92DF923C
:1011C000EF92FF920F931F93CF93DF93CDB7DEB7CC
:1011D000A1970FB6F894DEBF0FBECDBF7C01C42E21
:1011E000E52FCB01D22E19A221E02D1510F02AE017
:1011F000D22E8E010F5D1F4F8D2C912CA12CB12C66
:101200006C2D7E2FA50194010E94A00B8C2DD29EE7
:1012100080191124015011098A3014F4805D01C035
:10122000895CF8018083211531054105510521F0C4
:10123000C22EE32FCA01E4CFB801C7010E94930870
:10124000A1960FB6F894DEBF0FBECDBFDF91CF9150
:101250001F910F91FF90EF90DF90CF90BF90AF90D4
:101260009F908F900895CF92DF92EF92FF920F930D
:101270001F93CF93DF93EC016A017B0121153105A8
:1012800079F4E881F9810190F081E02D642FDF91FC
:10129000CF911F910F91FF90EF90DF90CF90099425
:1012A0002A303105E9F477FF1AC06DE20E94AB08DD
:1012B0008C0144275527BA014C195D096E097F0935
:1012C0002AE0CE010E94DA08800F911FDF91CF91B2
:1012D0001F910F91FF90EF90DF90CF9008952AE03B
:1012E000B701A601CE01DF91CF911F910F91FF9021
:1012F000EF90DF90CF900C94DA089A01AB0166274B
:1013000057FD6095762F0C9433090F931F93CF935D
:10131000DF93EC019A01AB01662757FD6095762FAC
:101320000E9433098C01CE010E94B208800F911FE8
:10133000DF91CF911F910F9108952115310541F44F
:10134000DC01ED91FC910190F081E02D642F099476
:101350000C94DA089A01462F50E060E070E00C949B
:101360009D090F931F93CF93DF93EC010E94970485
:10137000688779878A879B87E881F9810084F1856E
:10138000E02DCE01099597FF15C00E9497040885AE
:1013900019852A853B85601B710B820B930B0C8191
:1013A0001D812E813F81601771078207930720F30B
:1013B0008FEF9FEFDF91CF911F910F910895CF9302
:1013C000DF93EC01CE010E94B10997FD11C08D326F
:1013D000910571F09C01205331092A30310540F00C
:1013E000E881F9810680F781E02DCE010995EACFE9
:1013F000DF91CF910895CF92DF92FF920F931F93C9
:10140000CF93DF9300D000D0CDB7DEB76C01062FAD
:101410000E94DF09FC0197FD4BC020E030E0A901EC
:10142000F12C112707FD1095E017F107E9F0ED32D7
:10143000F105C1F0CF01C0970A97B0F4AAE0B0E07F
:101440000E94E70B9B01AC01CF01AA2797FDA09555
:10145000BA2F280F391F4A1F5B1F2053310941093A
:10146000510902C0FF24F394D601ED91FC9106804E
:10147000F781E02DC60129833A834B835C8309956C
:10148000C6010E94B109FC01C09729813A814B81B4
:101490005C810A9748F2E017F10731F2FF2061F012
:1014A00066277727CB01621B730B840B950B06C055
:1014B00060E070E0CB0102C0CA01B9010F900F904B
:1014C0000F900F90DF91CF911F910F91FF90DF90C0
:1014D000CF90089561E00C94FB094F925F926F9258
:1014E0007F92AF92BF92CF92DF92EF92FF920F93D3
:1014F0001F93CF93DF93CDB7DEB729013A01621B6B
:10150000730B840B950B29893A894B895C892A19BD
:101510003B094C095D09298B3A8B4B8B5C8B9B01FA
:10152000AC0169897A898B899C890E94900BE418A7
:10153000F50806091709A80197010E94C20B2A0D98
:101540003B1D4C1D5D1DCA01B901DF91CF911F915B
:101550000F91FF90EF90DF90CF90BF90AF907F9072
:101560006F905F904F900895FC01808191810C9461
:10157000990CCF93DF93EC0188819981009711F04A
:101580000E94990C198218821D821C821B821A8269
:10159000DF91CF9108950F931F93CF93DF93EC01C9
:1015A0008B016F5F7F4F888199810E94280D009782
:1015B00031F0998388831B830A8381E001C080E036
:1015C000DF91CF911F910F910895CF93DF93EC019D
:1015D00088819981892B29F08A819B8186179707B9
:1015E00060F4CE010E94CB0A882341F08C819D815A
:1015F000892B19F4E881F981108281E0DF91CF9184
:101600000895EF92FF920F931F93CF93DF93EC0116
:101610007B018A01BA010E94E50A811104C0CE0152
:101620000E94B90A07C01D830C83B7018881998184
:101630000E94FB0DCE01DF91CF911F910F91FF9082
:10164000EF900895FC01118210821382128215829C
:1016500014826115710559F0FB0101900020E9F732
:10166000AF0141505109461B570B0C94010B0895D3
:10167000CF93DF93EC016115710561F0FB010190DF
:101680000020E9F7AF0141505109461B570B0E945A
:10169000010B02C00E94B90ACE01DF91CF910895DB
:1016A000EF92FF920F931F93CF93DF93EC017B0197
:1016B0000C811D816115710511F480E016C0411582
:1016C000510591F0040F151FB8010E94E50A882307
:1016D000A1F3288139818C819D81B701820F931FED
:1016E0000E94FB0D1D830C8381E0DF91CF911F9140
:1016F0000F91FF90EF900895CF93DF9300D0CDB777
:10170000DEB769831A8241E050E0BE016F5F7F4F10
:101710000E94500B0F900F90DF91CF910895089584
:10172000DB018F939F930E94E70BBF91AF91A29F24
:10173000800D911DA39F900DB29F900D11240895CF
:10174000A1E21A2EAA1BBB1BFD010DC0AA1FBB1FC5
:10175000EE1FFF1FA217B307E407F50720F0A21B37
:10176000B30BE40BF50B661F771F881F991F1A94A4
:1017700069F760957095809590959B01AC01BD01CE
:10178000CF010895052E97FB1EF400940E94D90BFB
:1017900057FD07D00E94A00B07FC03D04EF40C9419
:1017A000D90B50954095309521953F4F4F4F5F4F46
:1017B000089590958095709561957F4F8F4F9F4FBD
:1017C0000895EE0FFF1F0590F491E02D09940E94FB
:1017D000F20BA59F900DB49F900DA49F800D911DBD
:1017E00011240895A29FB001B39FC001A39F700D63
:1017F000811D1124911DB29F700D811D1124911D19
:101800000895CF93DF938230910510F482E090E049
:10181000E0910F03F091100320E030E0A0E0B0E091
:10182000309739F14081518148175907B8F048176E
:10183000590771F482819381109729F013969C9334
:101840008E9312972CC09093100380930F0327C0A0
:101850002115310531F04217530718F0A901DB01BA
:1018600001C0EF019A01BD01DF010280F381E02D8B
:10187000D7CF21153105F9F0281B390B243031055C
:1018800080F48A819B816115710521F0FB019383AE
:10189000828304C09093100380930F03FE0132965D
:1018A00044C0FE01E20FF31F81939193225031094E
:1018B000398328833AC020910D0330910E03232BE6
:1018C00041F4209102013091030130930E032093E3
:1018D0000D0320910001309101012115310541F4E2
:1018E0002DB73EB74091040150910501241B350BE3
:1018F000E0910D03F0910E03E217F307A0F42E1B05
:101900003F0B2817390778F0AC014E5F5F4F241763
:10191000350748F04E0F5F1F50930E0340930D03A1
:101920008193919302C0E0E0F0E0CF01DF91CF918D
:101930000895CF93DF93009709F487C0FC01329795
:1019400013821282C0910F03D0911003209781F46B
:1019500020813181280F391F80910D0390910E0352
:101960008217930779F5F0930E03E0930D036DC092
:10197000DE0120E030E0AE17BF0750F412964D9123
:101980005C9113979D014115510509F1DA01F3CFDF
:10199000B383A28340815181840F951F8A179B07CF
:1019A00071F48D919C911197840F951F02969183EC
:1019B000808312968D919C91139793838283211536
:1019C000310529F4F0931003E0930F033EC0D901D1
:1019D0001396FC93EE9312974D915D91A40FB51F52
:1019E000EA17FB0779F480819181840F951F029695
:1019F000D90111969C938E938281938113969C9327
:101A00008E931297E0E0F0E08A819B81009719F0B5
:101A1000FE01EC01F9CFCE01029628813981820FB7
:101A2000931F20910D0330910E032817390769F495
:101A3000309729F41092100310920F0302C0138202
:101A40001282D0930E03C0930D03DF91CF910895BE
:101A5000A0E0B0E0EEE2FDE00C94060EEC01CB015C
:101A6000209719F40E94010CB8C0FE01E60FF71F81
:101A70009E0122503109E217F30708F4ACC0D901E6
:101A80000D911C91119706171707B8F00530110535
:101A900008F49FC0A801445051094617570708F49D
:101AA00098C002501109061B170B019311936D93F7
:101AB0007C93CF010E94990C8CC05B01A01AB10AE3
:101AC0004E01800E911EA0910F03B0911003612C66
:101AD000712C60E070E0109709F449C0A815B905B1
:101AE000C9F5ED90FC901197670142E0C40ED11C3E
:101AF000CA14DB0478F147018A189B08640142E0AC
:101B0000C40ED11C1296BC9012971396AC91B5E0FE
:101B1000CB16D10440F0B282A38391828082D90196
:101B20008D939C9309C00E5F1F4F0E0D1F1DF90171
:101B300011830083EB2DFA2F6115710531F0DB0164
:101B40001396FC93EE93129744C0F0931003E09326
:101B50000F033FC06D917C9111976616770608F4CC
:101B60003B01BD0112960D90BC91A02DB4CF6091A8
:101B70000D0370910E0368157905E9F4681679066E
:101B8000D0F440910001509101014115510541F4FB
:101B90004DB75EB76091040170910501461B570B6C
:101BA000E417F507C0F4F0930E03E0930D03F90179
:101BB000918380830EC00E94010C7C01009759F034
:101BC000A801BE010E94F20DCE010E94990CC7012E
:101BD00004C0CE0102C080E090E0CDB7DEB7EEE0F9
:101BE0000C94220EFB01DC0102C001900D924150C9
:101BF0005040D8F70895FB01DC0101900D920020C0
:101C0000E1F708952F923F924F925F926F927F92E9
:101C10008F929F92AF92BF92CF92DF92EF92FF92FC
:101C20000F931F93CF93DF93CDB7DEB7CA1BDB0BA8
:101C30000FB6F894DEBF0FBECDBF09942A8839884D
:101C400048885F846E847D848C849B84AA84B98454
:101C5000C884DF80EE80FD800C811B81AA81B98160
:101C6000CE0FD11D0FB6F894DEBF0FBECDBFED0174
:101C7000089510E0C6EDD0E004C0FE010E94E30B21
:0C1C80002296C83DD107C9F7F894FFCFA9
:101C8C0000001103800001000000110010000F0083
:101C9C004142434445464748480700090008002C88
:101CAC0001000001564D4450565F317C315F564D5A
:101CBC004450560D0A0041726475696E6F2054725F
:101CCC00616E736D6974746572205665722E302E58
:101CDC00310009004B657933004B657934004B6555
:101CEC007935004B657936004B657937004B657952
:101CFC0038006765745F636861723A2000617264D2
:101D0C005F636F6D6D616E643A2000526563656947
:101D1C00766564204B65793A0020416E616C6F6783
:101D2C002030203D2000564D4450435F005F564DFF
:101D3C004450430D0A004572726F723A204174741C
:101D4C00656D707420746F207365742061207265EA
:101D5C0061642D6F6E6C79207661726961626C655D
:101D6C00206F7220646174612074797065206E6FCD
:101D7C007420737570706F727465640D0A000000C6
:101D8C000000EF066B0871068A067C06CD066E61B4
:0C1D9C006E00696E66006F7666002E0017
:00000001FF
